:10400000207B002095C9000019C7000091C900005D
:1040100091C9000091C9000091C9000091C9000038
:1040200000000000000000000000000091C9000036
:1040300091C900000000000091C90000CB8D000074
:1040400001A7000075A6000019B60000C5A7000072
:1040500007C50000A7B100008DA7000007B200004F
:1040600077B1000000000000D7B1000000000000A0
:10407000C9BC0000000000000000000000000000BB
:104080000000000000000000000000000000000030
:104090000000000000000000000000000000000020
:1040A0000000000000000000000000000000000010
:1040B0000000000000000000000000000000000000
:10440000FFFFFFFFDFCEFFFFFCFF0F00FFFF0F00EE
:10441000FCFF0F00FFFF0F00FCFF0F00FFFF0F006E
:10442000FCFF0F20FFFF0F20FCFF7F40FFFF7F40BE
:10443000FCFF0D40FFFF0D40FFFFFFFF44F26470E3
:1044400044F26473C2F20000C2F2000310B583426A
:1044500005D040F20003C0F2000303B1984710BD3D
:1044600044F2647044F26473C2F20000C2F20003CA
:104470001B1A9A10D90F8918491010B529B140F2AA
:104480000003C0F2000303B1984710BD10B544F219
:104490007874C2F20004237873B9FFF7CFFF40F2BB
:1044A0000003C0F200032BB14FF29C20C0F20000C9
:1044B00000E000BF0123237010BDC04640F200039E
:1044C000C0F2000310B54BB144F27C714FF29C2056
:1044D000C2F20001C0F2000000E000BFFFF7C0FF21
:1044E00010BDC04600B58BB04EF20003C4F201030C
:1044F00040F210429A5CD3B292060CD4DA061AD477
:104500005A061FD4DA0724D54DF61400C0F2000075
:1045100001F017FC05E04DF2D870C0F2000001F088
:1045200010FC4EF20003C4F2010340F210420021DD
:1045300099540BB000BD4DF2EC70C0F2000001F0D8
:1045400000FCEEE74DF60000C0F2000001F0F9FBC0
:10455000E7E74DF62802C0F20002242101A808F086
:10456000BDFB01A801F0EDFBDBE710B5FFF7BAFFDB
:104570004EF6D063C0F200031C685968200005F0B5
:10458000E6FE08B10E2803D1200005F07DFE10BD27
:104590004DF64400C0F2000001F0D3FBF7E710B580
:1045A0004EF6D063C0F20003186805F06DFE10BD32
:1045B00070B582B005000800110040F61063B5FB2D
:1045C000F3F31A01D21A1401A41A24012C1B3C2261
:1045D000B4FBF2F4B5FBF2F21601B61AB600AD1B4D
:1045E0004DF65C02C0F200020195009408F076FBE3
:1045F00002B070BD10B544F29870C2F2000001F034
:10460000D8F84EF6F061C0F2000145F2E844C2F27B
:104610000004200007F004FB200007F0E7FA10BDBB
:10462000022808D844F29873C2F2000302308000D6
:10463000C2580132C250704730B50478457880784E
:1046400044F29873C2F200035A6801325A606CB99E
:10465000002D3BD123002B4393B988B144F29873CA
:10466000C2F200039A6A01329A6209E02B00034306
:1046700033B944F29873C2F200031A6A01321A6223
:10468000002C2DD1002D37D194B13DB130B944F279
:104690009873C2F20003DA690132DA6144B13DB1C4
:1046A00030B144F29873C2F20003DA6A0132DA627E
:1046B00001292BD0022931D0002937D144F2987337
:1046C000C2F200035A6B01325A6330BD0028C1D1D7
:1046D00044F29873C2F200035A6A01325A62B9E78F
:1046E000002DD2D10028D0D044F29873C2F200033A
:1046F0005A6901325A61C8E70028C5D044F298735C
:10470000C2F200039A6901329A61BDE744F29873DC
:10471000C2F200039A6B01329A63D6E744F29873AF
:10472000C2F20003DA6B0132DA63CEE744F2987327
:10473000C2F200031A6B01321A63C6E710B59CB0CF
:104740004DF67000C0F2000001F0FBFA44F29874DC
:10475000C2F200046068182202A9FFF729FF4DF693
:104760008402C0F2000202AB502108A808F0B6FA99
:1047700008A801F0E6FAA368E16820694DF69C02FA
:10478000C0F2000201900091502108A808F0A6FA9A
:1047900008A801F0D6FA206A182202A9FFF708FF3C
:1047A0004DF6C402C0F2000202AB502108A808F086
:1047B00095FA08A801F0C5FA606A182202A9FFF765
:1047C000F7FE4DF6D802C0F2000202AB502108A855
:1047D00008F084FA08A801F0B4FAA06A182202A925
:1047E000FFF7E6FE4DF6EC02C0F2000202AB5021EC
:1047F00008A808F073FA08A801F0A3FA6069182263
:1048000002A9FFF7D5FE4DF60012C0F2000202AB7E
:10481000502108A808F062FA08A801F092FAA069ED
:10482000182202A9FFF7C4FE4DF61412C0F20002CE
:1048300002AB502108A808F051FA08A801F081FA4B
:10484000E069182202A9FFF7B3FE4DF62812C0F264
:10485000000202AB502108A808F040FA08A801F0B5
:1048600070FAE06A182202A9FFF7A2FE4DF63C1288
:10487000C0F2000202AB502108A808F02FFA08A8E5
:1048800001F05FFA206B182202A9FFF791FE4DF6A6
:104890005412C0F2000202AB502108A808F01EFA20
:1048A00008A801F04EFA606B182202A9FFF780FEFB
:1048B0004DF66C12C0F2000202AB502108A808F0BD
:1048C0000DFA08A801F03DFAA06B182202A9FFF723
:1048D0006FFE4DF68412C0F2000202AB502108A810
:1048E00008F0FCF908A801F02CFAE06B182202A9E4
:1048F000FFF75EFE4DF69C12C0F2000202AB5021A3
:1049000008A808F0EBF908A801F01BFA4DF6B4105E
:10491000C0F2000001F015FA1CB010BD44F298700E
:10492000C2F200004BF2B663CBF2B663036070478D
:1049300010B544F29874C2F2000440220021200015
:1049400008F020FA4BF2B663CBF2B663236000F0B6
:1049500052FF10BD44F29473C2F2000301221A7098
:10496000704744F29473C2F200031B78D8B203B9C3
:10497000704744F29473C2F2000300221A70F7E702
:1049800010B54EF63C43C0F20003596845F264305E
:10499000C2F2000006F06DF810BDFFFF10B506284A
:1049A00000D9C5E080006E4B1B589F4645F2643429
:1049B000C2F20004002240F20621200005F0A6FF0A
:1049C000002240F20721200005F0A0FF002240F65F
:1049D0000F11200005F09AFF10BD45F26434C2F2B9
:1049E0000004002240F20621200005F08FFF002283
:1049F00040F20721200005F089FF012240F60F1147
:104A0000200005F083FFE7E745F26434C2F20004BA
:104A1000002240F20621200005F078FF012240F23A
:104A20000721200005F072FF012240F60F1120003F
:104A300005F06CFFD0E744F2D873C2F20003197896
:104A400001224A401A70012916D045F26434C2F29C
:104A50000004002240F20621200005F057FF00224A
:104A600040F20721200005F051FF002240F60F110F
:104A7000200005F04BFFAFE745F26434C2F20004BA
:104A8000012240F20621200005F040FF012240F201
:104A90000721200005F03AFF012240F60F11200007
:104AA00005F034FF98E745F26434C2F200040122B5
:104AB00040F20621200005F029FF002240F20721E4
:104AC000200005F023FF012240F60F11200005F021
:104AD0001DFF81E745F26434C2F20004012240F276
:104AE0000621200005F012FF012240F207212000DC
:104AF00005F00CFF002240F60F11200005F006FF24
:104B00006AE745F26434C2F20004012240F2062151
:104B1000200005F0FBFE012240F20721200005F0F5
:104B2000F5FE012240F60F11200005F0EFFE53E7DD
:104B300045F26434C2F20004012240F20621200052
:104B400005F0E4FE012240F20721200005F0DEFE20
:104B5000012240F60F11200005F0D8FE3CE7C046C8
:104B6000A0E9000044F2DC72C2F2000211784B1E90
:104B700099415378581E83415B189078421E9041AA
:104B8000C01870478170C170002200238280C280EB
:104B9000037243728372704710B582B001006B4696
:104BA000DC1D45F26430C2F20000220005F081FEF7
:104BB000207802B010BD10B5002401E00134E4B249
:104BC000022C0BD844F22063C2F200032201D05A17
:104BD000FFF7E2FF0028F1D1002000E0012010BD26
:104BE00010B504000088FFF7D7FF0022A272E27818
:104BF00082421ED00022A280E07000B1A070A37893
:104C0000FBB9E3884EF65F22934201D80A33E38072
:104C1000637A13B90133A3726372E28840F2E73317
:104C20009A4212D9237A83B90233A372013B2372C9
:104C30000BE0A388312B02D80A33A380DFE7A070F2
:104C4000DDE70023E3802372637210BD10B544F6E4
:104C5000E013C2F200031B7803B3332444F2DC7385
:104C6000C2F200039B78DBB91420012105F053FA4E
:104C700044F2DC73C2F200031B789BB914200121BB
:104C800005F067FA44F2DC73C2F200035B7803B903
:104C900014240021200005F07AFA10BD3C24DDE741
:104CA0002000E2E72000EAE710B50121002005F02E
:104CB00032FA0121002005F04CFA0021002005F015
:104CC00066FA0021002005F080FA0121002005F09D
:104CD0009AFA0021002005F0B4FA10BD70B54EF626
:104CE0003C43C0F20003596845F26430C2F2000050
:104CF00005F0BFFE44F2E473C2F2000340F22C124E
:104D00001A8044F2E273C2F2000300221A8044F2D5
:104D1000E073C2F200031A70002411E044F2206331
:104D2000C2F200032501E85AFFF736FF010044F202
:104D30002063C2F20003E818FFF724FF0134E4B255
:104D4000022CEBD970BD70B544F2E473C2F20003DB
:104D50001B883BB944F2E073C2F200031B786BB3CB
:104D6000002472E00A2B1BD944F2E472C2F2000262
:104D70000A3B13800024022C19D844F22063C2F2AB
:104D800000032501E85AFFF707FF010044F2206302
:104D9000C2F20003E818FFF7F5FE0134E4B2EAE7D7
:104DA00044F2E473C2F2000300221A80E2E744F204
:104DB000E273C2F2000300221A8048E0FFF7FBFE14
:104DC0000600002411E044F22063C2F20003250132
:104DD000E85AFFF7E1FE010044F22063C2F200034B
:104DE000E818FFF7CFFE0134E4B2022CEBD9D6B1BC
:104DF00044F2E273C2F200031B88312B05D844F25F
:104E0000E272C2F200020A33138044F2E273C2F289
:104E100000031B88312B1AD944F2E073C2F200035D
:104E200001221A7013E044F2E273C2F2000300227E
:104E30001A800CE0200144F22063C2F200039C4679
:104E40006044FFF7CDFE0134E4B2022CF2D970BD0C
:104E500070B5002432E0250165440023AB722BE0DD
:104E6000FFF7F4FE44F2E673C2F2000300221A8058
:104E700044F2E873C2F2000301321A7044F2DC73A8
:104E8000C2F20003187840B25A785200104340B280
:104E90009B789B001843C0B244F2DF73C2F2000358
:104EA0001B7883425DD12D0144F22063C2F20003DE
:104EB0009C4665440023AB720134E4B2022C00D955
:104EC000EFE02500230144F22062C2F20002944682
:104ED00063449B7A012BE6D144F2E873C2F20003EB
:104EE0001B78002BB7D144F2DC73C2F200031B5DC8
:104EF000FBBBFFF737FE060044F2DC73C2F200038F
:104F000001221A552000FFF78BFB44F64413C2F22E
:104F1000000300221A6044F63C13C2F200031A7028
:104F200044F63B13C2F200031A7003F0E3F903F0F6
:104F300003F803F0B4F9002E92D0022C07D05CB134
:104F4000012C9BD100213C2005F021F996E701219D
:104F50003C2005F0E0F891E701213C2005F0F9F84C
:104F60008CE744F2DF73C2F20003187000F0F6FC25
:104F700099E7FFF7F7FD012855D9022C20D084B31B
:104F8000012C3FD044F2DC73C2F20003187840B227
:104F90005A785200104340B29B789B001843C0B22D
:104FA00044F2DF73C2F200031B78834200D17AE738
:104FB00044F2DF73C2F20003187000F0CFFC72E716
:104FC0000121142005F0A7F844F26063C2F2000347
:104FD0003C221A6044F2DC73C2F2000300221A552C
:104FE000D0E70121142005F0B4F844F25C63C2F26A
:104FF00000033C221A6044F2DC73C2F20003002278
:105000001A55BFE70021142005F0C1F844F2586397
:10501000C2F200033C221A6044F2DC73C2F20003C5
:1050200000221A55AEE745F26430C2F200000022B9
:1050300040F60D1105F06AFC022C1DD01CB3012CAA
:1050400028D044F25063C2F200031C7044F2E673AD
:10505000C2F2000300221A8044F2E873C2F2000395
:1050600002321A70002000F079FC44F2DF73C2F2C1
:10507000000300221A7016E744F26063C2F20003D4
:105080003C221A60DDE744F25C63C2F200033C227A
:105090001A60D6E744F25863C2F200033C221A6059
:1050A000CFE770BD10B544F2E873C2F2000319787F
:1050B000B1B144F2E672C2F20002138801339BB22E
:1050C0001380092B0CD9130000221A80012908D063
:1050D000022910D044F2E873C2F2000300221A70D1
:1050E00010BD45F26430C2F20000013240F60D11ED
:1050F00005F00CFCEEE744F25064C2F2000400221A
:10510000A25644F2DC73C2F2000300219954FFF767
:10511000CBFDFF232370DDE744F2DC73C2F2000312
:105120001B786BB944F2DC73C2F200035B7853B9AD
:1051300044F2DC73C2F200039B7833B1012000E03B
:105140000120C0B270470120FBE70020F9E770B5ED
:1051500004000D00022800D901E144F2E873C2F214
:1051600000031B78002B00D0FBE000296BD044F239
:10517000DC73C2F200031B5C0BB10800F0E0FFF728
:10518000F1FC060044F2DC73C2F2000301221A555E
:105190002000FFF745FA44F64413C2F20003002250
:1051A0001A6044F63C13C2F200031A7044F63B1333
:1051B000C2F200031A7003F09DF802F0BDFE03F086
:1051C0006EF84EB1022C2BD07CB3012C12D10021F1
:1051D0003C2004F0DCFF0DE0FFF738FD44F2E673FD
:1051E000C2F2000300221A8044F2E873C2F2000304
:1051F00001321A7044F2DC73C2F2000318785A7854
:105200005200104340B29B789B001843C0B244F256
:10521000DF73C2F200031B7883420BD128009FE0AA
:1052200001213C2004F077FFE4E701213C2004F059
:1052300090FFDFE744F2DF73C2F20003187000F062
:105240008DFB28008CE044F2DC73C2F200031B5C8F
:105250000BB9012084E0FFF785FC012843D9022C1B
:1052600022D064BB0121142004F073FF44F25C637C
:10527000C2F200033C221A6044F2DC73C2F2000363
:1052800000221A5518785A785200104340B29B7881
:105290009B001843C0B244F2DF73C2F200031B78D4
:1052A000834217D101205BE00121142004F033FF79
:1052B00044F26063C2F200033C221A60DCE7002182
:1052C000142004F064FF44F25863C2F200033C224D
:1052D0001A60D1E744F2DF73C2F20003187000F0E5
:1052E0003DFB01203CE045F26430C2F200000022A8
:1052F00040F60D1105F00AFB022C07D044BB44F226
:105300005C63C2F200033C221A6005E044F2606371
:10531000C2F200033C221A6044F25063C2F200035E
:105320001C7044F2E673C2F2000300221A8044F2B9
:10533000E873C2F2000302321A70002000F00EFB84
:1053400044F2DF73C2F2000300221A70012007E06A
:1053500044F25863C2F200033C221A60DCE70020EA
:1053600070BD0020FCE770B5040044F2E873C2F29F
:1053700000031B78002B00D0ACE0002855D044F28D
:10538000DC73C2F200031B7863B144F2DC73C2F237
:1053900000035B7833B144F2DC73C2F200039B7804
:1053A000002B41D1FFF7DEFB060044F2DC73C2F2B2
:1053B000000301221A705A709A70002503E0E8B2C7
:1053C000FFF72EF90135022DF9DD44F64413C2F240
:1053D000000300221A6044F63C13C2F200031A7064
:1053E00044F63B13C2F200031A7002F083FF02F08E
:1053F000A3FD02F054FFFFF729FC5EB944F2E67307
:10540000C2F2000300221A8044F2E873C2F20003E1
:1054100001321A70072000F0A1FA44F2DF73C2F2E1
:10542000000307221A70200070BDFFF79BFB08B92C
:105430000120F9E745F26430C2F20000002240F694
:105440000D1105F063FA44F2DC73C2F200039B789D
:105450002BB144F26063C2F200033C221A6044F2B2
:10546000DC73C2F200031B782BB144F25C63C2F21E
:1054700000033C221A6044F2DC73C2F200035B7842
:105480002BB144F25863C2F200033C221A6044F28A
:10549000DC72C2F20002002313705370937044F266
:1054A0005062C2F20002137044F2E672C2F20002CD
:1054B000138044F2E873C2F2000302221A70002043
:1054C00000F04CFA44F2DF73C2F2000300221A70BB
:1054D0000120A9E70020A7E710B582B06B46DC1DCC
:1054E00045F26430C2F20000220040F2074105F0AC
:1054F000E0F92378012B07D044F2D973C2F20003FC
:1055000000221A7002B010BD44F2D973C2F2000337
:105510001B78042B05D844F2D972C2F20002013381
:10552000137044F2D973C2F200031B78042BE9D93B
:105530004DF6C810C0F2000000F003FC022003F09A
:105540009BFBDFE710B500F019FA00B9013001222A
:105550001100014044F2DC73C2F2000319704110E3
:105560001140597081100A409A7048B344F2DC73BC
:10557000C2F200039B7823B33C20012104F0CBFD51
:1055800044F2DC73C2F200031B78E3B13C2001213A
:1055900004F0DFFD44F2DC73C2F200035B78A3B1D8
:1055A0003C20002104F0F3FD44F2E673C2F2000354
:1055B00000221A8044F2E873C2F2000301321A702A
:1055C00010BD1420D9E71420E1E71420E9E710B555
:1055D00044F2EC70C2F200000021C4F21001C022BB
:1055E00007F01CFC10BD10B50021C4F2100145F2FB
:1055F000A040C2F20000032206F068FA040088B955
:105600000022C4F2100244F2EC71C2F2000145F231
:10561000A040C2F20000C02306F07AFA040040B9AC
:10562000200010BD4DF6F010C0F2000000F089FB24
:10563000F6E74DF60C20C0F2000000F082FBEFE729
:1056400010B54EF6BC61C0F2000145F2A040C2F2B6
:10565000000006F052F910BD70B584B006000D00D0
:105660001400FFF7B4FF01AB4AF2A552CAF2A552EB
:1056700001929E80DD801C8100225A8144F2EC72EE
:10568000C2F2000231CB31C2FFF7ADFF04B070BDF2
:1056900030B50023C4F210031C684AF2A553CAF2C5
:1056A000A5539C420DD10023C4F2100304255C5F76
:1056B00004800624185F088008215B5E13800020A8
:1056C00030BD2120FCE7F0B585B007000E001500C5
:1056D000FFF77DFF6C4645F65A23C5F65A23009323
:1056E0006760A660E56044F2EC73C2F20003103319
:1056F00007CC07C322681A60FFF775FF05B0F0BD3D
:1057000010B51023C4F210031C6845F65A23C5F6E1
:105710005A239C420AD11023C4F210035C6804602F
:1057200098680860DB681360002010BD2120FCE74A
:1057300010B50400E0B12023C4F210031A684CF243
:10574000C333CCF2C3339A4207D12021C4F21001F3
:10575000242207F063FB002010BD2422002107F063
:1057600011FB4CF2C333CCF2C33323602120F3E7A7
:105770000320F1E710B58AB0FFF729FF01AC24221E
:105780000021200007F0FEFA4CF2C333CCF2C33301
:10579000019344F2EC73C2F200032033200016C8D8
:1057A00016C316C816C316C816C3FFF71CFF0AB0E7
:1057B00010BD10B50400E0B14023C4F210031A6814
:1057C0004BF2B663CBF2B6639A4207D14021C4F2E2
:1057D0001001402207F022FB002010BD40220021D2
:1057E00007F0D0FA4BF2B663CBF2B6632360212008
:1057F000F3E70320F1E700B591B0FFF7E8FE4022A0
:105800000021684607F0BEFA4BF2B663CBF2B663EE
:10581000009344F2EC70C2F200004030402269462E
:1058200007F0FCFAFFF7DFFE11B000BDF0B58BB05A
:1058300004000D00FFF7CBFE01A91B4B0A00C1CBF2
:10584000C1C243CB43C243CB43C2019A4CF2C333E0
:10585000CCF2C3339A421CD1029B01330293052C34
:1058600005D801AA0234A400A3580133A35001AA09
:105870000D4B13CA13C313CA13C313CA13C325B1E1
:105880000A484022290007F0C9FAFFF7ACFE0BB026
:10589000F0BD2422002101A807F074FA4CF2C333B2
:1058A000CCF2C3330193D7E70C4800202C480020EA
:1058B00010B50400E0B18023C4F210031A684DF261
:1058C000D443CDF2D4439A4207D18021C4F21001CF
:1058D000402207F0A3FA002010BD4022002107F06B
:1058E00051FA4DF2D443CDF2D44323602120F3E7A3
:1058F0000320F1E710B5040048B1FFF768FE054842
:105900004022210007F08AFAFFF76DFE10BD032048
:10591000FCE7C0466C48002000B591B04022002151
:10592000684607F02FFA4DF2D443CDF2D4430093EA
:1059300001236A46D371D3724DF62821C0F20001CB
:105940001F2205A807F044FA0C2200210DA807F039
:1059500019FA6846FFF7CEFF11B000BD10B590B040
:1059600004006846FFF7A4FF08B1212804D16B4664
:105970001C736846FFF7BEFF10B010BD00B591B0B4
:105980006846FFF795FF18B96B46187B11B000BD4C
:105990000020FBE710B544F2EC70C2F20000C02218
:1059A000FF2107F0EFF9FFF71EFE10BDBFF34F8F89
:1059B0004EF60053CEF200030422C0F2FA52DA602F
:1059C000BFF34F8FC046FDE710B504004DF6302100
:1059D000C0F200010D2207F0EAF9002800D124E10D
:1059E0004DF64021C0F20001200007F00DFA00281A
:1059F00000D11CE14DF65021C0F200010A22200026
:105A000007F0D5F9002800D113E14DF65C21C0F272
:105A100000010922200007F0CAF9002800D10AE19C
:105A20004DF66821C0F200010A22200007F0BFF9FC
:105A3000002800D101E14DF67421C0F200012000E0
:105A400007F0E2F9002800D1F9E04DF68021C0F21C
:105A50000001200007F0D8F9002800D1F1E04DF650
:105A60008C21C0F20001200007F0CEF9002800D1FF
:105A7000E9E04DF69821C0F20001200007F0C4F9DA
:105A8000002800D1E1E04DF6A421C0F20001200081
:105A900007F0BAF9002800D1D9E04DF6AC21C0F2E8
:105AA0000001200007F0B0F9002800D1D1E04DF648
:105AB000B821C0F20001200007F0A6F9002800D1AB
:105AC000C9E04DF6C821C0F20001200007F09CF9A2
:105AD000002800D1C1E04DF6DC21C0F20001200019
:105AE00007F092F9002800D1B9E04DF6E021C0F2AC
:105AF0000001200007F088F9002800D1B1E04DF640
:105B0000E421C0F20001200007F07EF9002800D156
:105B1000A9E04DF6E821C0F20001200007F074F979
:105B2000002800D1A1E04DF6EC21C0F200010D22C9
:105B3000200007F03CF9002800D198E04DF6FC2148
:105B4000C0F200010922200007F031F9002800D13D
:105B50008FE04DF60831C0F20001200007F054F943
:105B6000002800D187E04DF61831C0F20001200076
:105B700007F04AF9002800D17FE04DF62C31C0F241
:105B80000001200007F040F9002800D177E04DF631
:105B90003C31C0F20001200007F036F9002800D1A6
:105BA0006FE04DF64C31C0F20001200007F02CF9F7
:105BB000002868D04DF65C31C0F20001200007F0EB
:105BC00023F9002861D04DF66831C0F200012000B1
:105BD00007F01AF900285AD04DF67C31C0F20001C6
:105BE0000A22200007F0E3F8002852D04DF6883151
:105BF000C0F200010922200007F0D9F800284AD09D
:105C00004DF69431C0F200010A22200007F0CFF8CF
:105C1000002842D04DF6A031C0F20001200007F06C
:105C2000F3F800283BD0002000E0012010BD022046
:105C3000FCE70320FAE70420F8E70520F6E7062052
:105C4000F4E70720F2E70820F0E70920EEE70A2052
:105C5000ECE71120EAE70B20E8E70C20E6E70D204F
:105C6000E4E70E20E2E70F20E0E71020DEE7132054
:105C7000DCE71220DAE71420D8E71520D6E7162053
:105C8000D4E71720D2E71820D0E71920CEE71A2052
:105C9000CCE71B20CAE71C20C8E71D20C6E71E2052
:105CA000C4E710B54EF64841C0F2000145F26C3031
:105CB000C2F2000004F05DFC60B944F6B801C2F223
:105CC000000145F26C30C2F20000202204F071FBAA
:105CD00078B910BD4DF6A433C0F200034EF6682229
:105CE000C0F200024DF6B830C0F20000912106F07B
:105CF000D8FC4DF6A433C0F200034EF66822C0F281
:105D000000024DF6B830C0F20000932106F0C9FC45
:105D10000379022B0ED0042B0BD144F6B403C2F24C
:105D2000000301221A7044F6B003C2F200031F32CE
:105D30001A60704744F25163C2F2000301221A70E4
:105D4000F7E710B5040010B10023C35603B910BD26
:105D500044F25163C2F2000300221A7007F067F8A0
:105D6000020045F26C30C2F20000210004F026FB74
:105D700048F28042C0F21E0201E0013AC04644F2FD
:105D80005163C2F200031B780BB9002AF5D1FEF76C
:105D900006FCDCE7F0B5C64600B5BCB044F6E4014D
:105DA000C2F2000144F6B803C2F200030A0031CB8C
:105DB00031C213CB13C203CB03C200231F2B12D853
:105DC000190044F6E402C2F20002D2560D2A04D0B1
:105DD0000A2A02D001339BB2F0E744F6E403C2F290
:105DE000000300225A5444F6E400C2F2000007F017
:105DF0001EF8013806E044F6E403C2F20003002274
:105E00001A540138002808DB44F6E403C2F2000308
:105E10001B56202BEFD0092BEDD044F6E400C2F244
:105E20000000FFF7D1FD1E2800D9CCE08000D34B45
:105E30001B589F464DF61C41C0F20001D04806F0A9
:105E4000E3FF78B944F6AC03C2F2000300221A70F3
:105E50005A709A70DA704DF62440C0F20000FFF7D5
:105E600070FFB0E04DF63840C0F20000FFF769FF68
:105E7000A9E044F6AC03C2F200031B7833B14DF63F
:105E80006040C0F20000FFF75CFF9CE04DF624404C
:105E9000C0F20000FFF755FF95E044F6AC03C2F2F4
:105EA00000031B7833B14DF67040C0F20000FFF7DD
:105EB00048FF88E0B34806F06BFE40F6E4439842A2
:105EC00011D844F6E003C2F20003186044F6AC03B4
:105ED000C2F2000301225A704DF68C40C0F200005D
:105EE000FFF72FFF6FE04DF69840C0F20000FFF77C
:105EF00028FF68E044F6AC03C2F200031B7833B11C
:105F00004DF67040C0F20000FFF71BFF5BE09E48BB
:105F100006F03EFE40F6E443984211D844F6DC0316
:105F2000C2F20003186044F6AC03C2F2000301227F
:105F30009A704DF68C40C0F20000FFF702FF42E07D
:105F40004DF69840C0F20000FFF7FBFE3BE044F640
:105F5000AC03C2F200031B7833B14DF67040C0F2BF
:105F60000000FFF7EEFE2EE0864806F011FE40F638
:105F7000E443984211D844F6D803C2F200031860F3
:105F800044F6AC03C2F200030122DA704DF68C40F5
:105F9000C0F20000FFF7D5FE15E04DF69840C0F2C4
:105FA0000000FFF7CEFE0EE044F6E003C2F200036D
:105FB0001A684DF6A441C0F200011CA806F0C2FE0A
:105FC0001CA8FFF7BEFE44F6AC03C2F200031B7828
:105FD000A3B944F6AC03C2F200035B7873B144F694
:105FE000AC03C2F200039B7843B144F6AC03C2F2A7
:105FF0000003DB78002B01D000F0FDFF44F6B8046D
:10600000C2F2000420220021200006F0BBFE45F26F
:106010006C30C2F200002022210004F0CAF93CB02A
:1060200080BCB846F0BD44F6DC03C2F200031A6837
:106030004DF6B441C0F200011CA806F083FE1CA876
:10604000FFF77FFEBFE744F6D803C2F200031A68E9
:106050004DF6C441C0F200011CA806F073FE1CA856
:10606000FFF76FFEAFE744F6E003C2F200031A68E1
:106070004DF6D441C0F200011CA806F063FE1CA836
:10608000FFF75FFE44F6DC03C2F200031A684DF628
:10609000E441C0F200011CA806F054FE1CA8FFF762
:1060A00050FE44F6D803C2F200031A684DF6F441DC
:1060B000C0F200011CA806F045FE1CA8FFF741FE37
:1060C00081E744F6AC03C2F200031B7833B94DF606
:1060D0000450C0F20000FFF734FE74E744F6E0031A
:1060E000C2F20003186844F6DC03C2F20003196828
:1060F00044F6D803C2F200031A68FFF7E4FA30B995
:106100004DF63050C0F20000FFF71BFE5BE74DF686
:106110004050C0F20000FFF714FE54E744F6AC0311
:10612000C2F200031B788BBB44F6E002C2F200020D
:10613000136044F6DC02C2F20002136044F6D80297
:10614000C2F20002136044F6AC02C2F200025370C5
:106150009370D370002200210020FFF7B4FA30B909
:106160004DF65450C0F20000FFF7EBFD2BE74DF663
:106170007850C0F20000FFF7E4FD24E7BCE900001E
:10618000F1480020EE480020ED4800204DF6704018
:10619000C0F20000FFF7D5FD15E745F24A33C2F221
:1061A000000301221A7045F24833C2F200030022B4
:1061B0001A8045F23C33C2F200031A605A609A60BA
:1061C0004DF69050C0F20000FFF7BBFDFBE60CAAB5
:1061D00006A905A8FFF75CFAA0B906AB00229B5EF2
:1061E00005AA0021525E4DF6AC51C0F200010CA888
:1061F0000024005F00901CA806F0A4FD1CA8FFF777
:10620000A0FDE0E64DF6CC50C0F20000FFF799FD8E
:10621000D9E645F23733C2F2000300221A704DF678
:10622000E450C0F20000FFF78CFDCCE645F23733B6
:10623000C2F2000301221A704DF60460C0F20000A1
:10624000FFF77FFDBFE645F23733C2F200030222BB
:106250001A704DF62460C0F20000FFF772FDB2E63E
:1062600045F23733C2F2000303221A704DF6446040
:10627000C0F20000FFF765FDA5E6814806F088FC46
:10628000020040F2F41398420FD844F25C63C2F269
:10629000000318604DF66461C0F200011CA806F00E
:1062A00051FD1CA8FFF74DFD8DE64DF67860C0F25C
:1062B0000000FFF746FD86E6724806F069FC0128FB
:1062C0000DD0C8B944F6B503C2F2000300221A701B
:1062D0004DF6A860C0F20000FFF733FD73E644F608
:1062E000B503C2F2000301221A704DF69460C0F2A9
:1062F0000000FFF726FD66E64DF69840C0F200006C
:10630000FFF71FFD5FE6604806F042FC01280DD054
:10631000C8B945F23A33C2F2000300221A704DF6B2
:10632000D060C0F20000FFF70CFD4CE645F23A33B6
:10633000C2F2000301221A704DF6BC60C0F20000E8
:10634000FFF7FFFC3FE64DF69840C0F20000FFF774
:10635000F8FC38E60CA8FFF7EBF921280DD00D9BCF
:106360004DF60072C0F2000280211CA806F0B6FCB7
:106370001CA8FFF7E6FC00241EE04DF6E460C0F226
:106380000000FFF7DEFC1EE64EF67C23C0F20003A1
:10639000A200D358A21C92000CA951584DF61C72B1
:1063A000C0F20002009180211CA806F097FC1CA8F6
:1063B000FFF7C7FC0134E4B2052CE5D903E644F647
:1063C000AC03C2F200031B7833B14DF67040C0F24B
:1063D0000000FFF7B6FCF6E5FFF7CCF930B94DF653
:1063E0003470C0F20000FFF7ACFCECE54DF65070E5
:1063F000C0F20000FFF7A5FCE5E5FEF79FF9E2E536
:1064000044F6AC03C2F200031B7833B14DF6704082
:10641000C0F20000FFF795FCD5E5FEF789FA4DF6CE
:106420006C70C0F20000FFF78CFCCCE54DF6847078
:10643000C0F20000FFF785FC02F0B8F8C3E544F6AF
:10644000AC03C2F200031B7833B14DF67040C0F2CA
:106450000000FFF776FCB6E5FEF7A1F8FFF79AFA21
:1064600030B94DF69C70C0F20000FFF76AFCAAE557
:106470004DF6B870C0F20000FFF763FCA3E5C0461C
:10648000F1480020ED480020EE4800204DF6CC7089
:10649000C0F20000FFF755FCFEF781F84DF6F470EE
:1064A000C0F20000FFF74DFC0CA8FFF701FA21280D
:1064B00000D1B4E00CAC4EF22802C0F2000211ABE5
:1064C00050211CA806F00AFC1CA8FFF73AFC23790F
:1064D0006179A079E5794EF23C02C0F200020295A2
:1064E0000190009150211CA806F0F8FB1CA8FFF7B2
:1064F00028FC237A617AA07AE57A4EF25802C0F23B
:10650000000202950190009150211CA806F0E6FBC4
:106510001CA8FFF716FC3423E356002B00D185E0BE
:1065200019AB4EF27402C0F2000250211CA806F012
:10653000D5FB1CA8FFF705FCFEF731F84EF28C00E6
:10654000C0F20000FFF7FDFB0CAA06A905A8FFF7A3
:106550009FF821286FD005AB00229B5E4EF2C4024B
:10656000C0F200020CA90020095E019106A90020DA
:10657000095E009150211CA806F0B0FB1CA8FFF793
:10658000E0FBFEF70CF84EF2E400C0F20000FFF76B
:10659000D8FB0CAA06A905A8FFF7B2F8212851D00C
:1065A0000C9B4EF21C12C0F2000250211CA806F0F7
:1065B00095FB1CA8FFF7C5FB069B4EF23012C0F2FC
:1065C000000250211CA806F089FB1CA8FFF7B9FBAC
:1065D000059B4EF24412C0F2000250211CA806F0A6
:1065E0007DFB1CA8FFF7ADFBFDF7D9FF4EF258105D
:1065F000C0F20000FFF7A5FB0CA8FFF799F82128CF
:1066000027D00D9B4EF28C12C0F2000250211CA824
:1066100006F064FB1CA8FFF794FB002438E04EF260
:106620001000C0F20000FFF78CFB85E74DF6DC336D
:10663000C0F2000375E74EF2AC00C0F20000FFF7B5
:1066400080FB9EE74EF20410C0F20000FFF779FBDA
:10665000CAE74EF27410C0F20000FFF772FB19E0B7
:106660004EF65023C0F20003A200D358A21C9200A1
:106670000CA951584EF2A012C0F200020091502114
:106680001CA806F02BFB1CA8FFF75BFB0134E4B24F
:10669000052CE5D9FDF783FF4EF2B010C0F20000E3
:1066A000FFF74FFB0CA8FFF784F8212800D1D0E1B9
:1066B0000D9940F61065B1FBF5F31801C01A0201FF
:1066C000121A12018A1A3C24B2FBF4F2B1FBF4F65E
:1066D0003001801B8000091A4EF2EC16C0F2000651
:1066E000019100923200182106A806F0F7FA4EF246
:1066F0000022C0F2000206AB50211CA806F0EEFA00
:106700001CA8FFF71EFB0E9B0F9910984EF21C223F
:10671000C0F200020190009150211CA806F0DEFAA0
:106720001CA8FFF70EFB1499B1FBF5F31801C01A72
:106730000201121A12018A1AB2FBF4F2B1FBF4F749
:106740003801C01B8000091A019100923200182103
:1067500006A806F0C3FA4EF24422C0F2000206ABCD
:1067600050211CA806F0BAFA1CA8FFF7EAFA1599FE
:10677000B1FBF5F31801C01A0201121A12018A1AAC
:10678000B2FBF4F2B1FBF4F73801C01B8000091A28
:10679000019100923200182106A806F09FFA4EF2ED
:1067A0006422C0F2000206AB50211CA806F096FA43
:1067B0001CA8FFF7C6FA1699B1FBF5F31801C01A29
:1067C0000201121A12018A1AB2FBF4F2B1FBF4F7B9
:1067D0003801C01B8000091A019100923200182173
:1067E00006A806F07BFA4EF28422C0F2000206AB45
:1067F00050211CA806F072FA1CA8FFF7A2FA119902
:10680000B1FBF5F31801C01A0201121A12018A1A1B
:10681000B2FBF4F2B1FBF4F73801C01B8000091A97
:10682000019100923200182106A806F057FA4EF2A4
:10683000A422C0F2000206AB50211CA806F04EFABA
:106840001CA8FFF77EFA1299B1FBF5F31801C01AE4
:106850000201121A12018A1AB2FBF4F2B1FBF4F728
:106860003801C01B8000091A0191009232001821E2
:1068700006A806F033FA4EF2C822C0F2000206ABB8
:1068800050211CA806F02AFA1CA8FFF75AFA1399FF
:10689000B1FBF5F31801C01A0201121A12018A1A8B
:1068A000B2FBF4F2B1FBF4F73801C01B8000091A07
:1068B000019100923200182106A806F00FFA4EF25C
:1068C000EC22C0F2000206AB50211CA806F006FA2A
:1068D0001CA8FFF736FA1799B1FBF5F31801C01A97
:1068E0000201121A12018A1AB2FBF4F2B1FBF4F798
:1068F0003801C01B8000091A019100923200182152
:1069000006A806F0EBF94EF21032C0F2000206AB18
:1069100050211CA806F0E2F91CA8FFF712FA1899FA
:10692000B1FBF5F31801C01A0201121A12018A1AFA
:10693000B2FBF4F2B1FBF4F73801C01B8000091A76
:10694000019100923200182106A806F0C7F94EF214
:106950003432C0F2000206AB50211CA806F0BEF98A
:106960001CA8FFF7EEF91999B1FBF5F31801C01A4D
:106970000201121A12018A1AB2FBF4F2B1FBF4F707
:106980003801C01B8000091A0191009232001821C1
:1069900006A806F0A3F94EF25432C0F2000206AB8C
:1069A00050211CA806F09AF91CA8FFF7CAF91A99F9
:1069B000B1FBF5F31801C01A0201121A12018A1A6A
:1069C000B2FBF4F2B1FBF4F73801C01B8000091AE6
:1069D000019100923200182106A806F07FF94EF2CC
:1069E0007432C0F2000206AB50211CA806F076F902
:1069F0001CA8FFF7A6F91B99B1FBF5F31801C01A03
:106A00000201121A12018A1AB2FBF4F2B1FBF4F479
:106A10002001001B8000091A019100923200182108
:106A200006A806F05BF94EF29432C0F2000206AB03
:106A300050211CA806F052F91CA8FFF782F9FDF7B7
:106A4000AEFD4EF2B430C0F20000FFF77AF9FFF766
:106A5000BAFA4EF2D410C0F20000FFF772F9EEE776
:106A60004EF2DC31C0F20001D74806F0CDF9040047
:106A7000002800D187E04EF20C41C0F20001D2485C
:106A800006F0C2F9002800D18FE04EF23C41C0F27E
:106A90000001CD48042206F08AF90400002800D045
:106AA000D8E044F6E403C2F200039B7B5BB22C2BDC
:106AB00000D0C3E044F6E403C2F20003DB7B5BB228
:106AC000002B00D1BAE04EF24441C0F20001BF48B1
:106AD00006F09AF90400002800D195E04EF24841F2
:106AE000C0F20001B94806F08FF9002800D18AE011
:106AF0004EF24C41C0F20001B44806F085F900287E
:106B000079D1022480E04DF60845C0F200051CE072
:106B10004DF6E435C0F2000517E04DF6F035C0F251
:106B2000000512E04DF6F835C0F200050DE04DF617
:106B3000FC35C0F2000508E04DF61045C0F2000536
:106B400003E04DF6E835C0F20005FDF728FD4EF6EE
:106B5000A023C0F20003A100CB584EF69422C0F24D
:106B6000000289584EF2E432C0F20002029101960E
:106B7000009550211CA806F0B1F81CA8FFF7E1F819
:106B8000FDF70DFD0134022C01DDFFF71CFAE5B223
:106B9000280000F03BFB0600280000F03FFB052822
:106BA000B1D880008A4B1B589F4600F019FBD0B12A
:106BB000FDF7F5FC4EF21440C0F20000FFF7C1F8FB
:106BC00044F6AC03C2F2000301221A705A709A70A4
:106BD000DA70FDF7E4FC4DF66040C0F20000FFF70C
:106BE000B0F8FFF7F0F94EF22840C0F20000FFF7CE
:106BF000A8F8FFF7E8F94EF25040C0F20000FFF7A6
:106C0000A0F8FFF7E0F90124E0B200F011FB4EF626
:106C1000A023C0F20003A400E3584EF27042C0F279
:106C2000000228211CA806F059F81CA8FFF789F8D3
:106C3000FFF7C9F9E0B200F0FBFA0134022CF9DDEC
:106C4000FDF7ADFC4EF28440C0F20000FFF779F88A
:106C5000FFF7B9F944F6E403C2F200039B7A5BB292
:106C6000482B13D0562B1DD0562B07D144F6E403E6
:106C7000C2F20003DB7A5BB2322B27D04EF298408F
:106C8000C0F20000FFF75DF8FFF79DF944F6E4025B
:106C9000C2F20002D27A52B22C2A23D0002AE1D1C9
:106CA000002420E044F6E402C2F20002D27A52B29A
:106CB000312AD9D144F6E402C2F20002127B52B268
:106CC0002C2A20D0002ACFD101240CE044F6E40382
:106CD000C2F200031B7B5BB22C2B16D0002BCDD154
:106CE000022400E0002438482C2106F053F810B1AB
:106CF0000123C3565BB94EF2D040C0F20000FFF74B
:106D000020F8FFF760F90124EDE70224EBE70130FA
:106D100005F03EFF0500FDF742FCE6B22900300019
:106D200000F091F90500300000F070FA0600FDF760
:106D300036FC012D0AD9022D28D0042D3FD0052D77
:106D40001FD04DF60841C0F2000123E0A5B94DF671
:106D5000E431C0F200014EF6A023C0F20003A4000B
:106D6000E3584EF2F442C0F20002019600913C2139
:106D70001CA805F0B3FF1DE04DF6F031C0F2000194
:106D8000E9E74DF61041C0F2000103E04DF6F8319D
:106D9000C0F200014EF6A023C0F20003A400E358A5
:106DA0004EF20C52C0F20002019600913C211CA848
:106DB00005F094FF1CA8FEF7C4FFFFF704F94DF699
:106DC000FC31C0F20001E5E7EE480020F348002066
:106DD00038EA00008F482C2105F0DCFF040010B1D8
:106DE0000123C3563BB94EF22850C0F20000FEF713
:106DF000A8FFFFF7E8F8082200210CA805F0C2FF61
:106E0000844AA21A072A00D9072282490CA806F050
:106E100005F801344DF6C421C0F20001200005F050
:106E2000F3FF88B14DF61841C0F20001200005F0D3
:106E3000EBFF08B9002408E04EF26050C0F20000F9
:106E4000FEF77FFFFFF7BFF801244EF28451C0F236
:106E500000010CA805F0D8FFC8B14EF24441C0F2C1
:106E600000010CA805F0D0FFE8B34EF24841C0F293
:106E700000010CA805F0C8FFA0B34EF24C41C0F2CF
:106E800000010CA805F0C0FF20BB02202BE0200071
:106E9000FEF769FAB0B184B14DF6C423C0F2000325
:106EA0004EF28852C0F2000220211CA805F016FF05
:106EB0001CA8FEF746FFFFF786F84DF61843C0F210
:106EC0000003EDE74EF29850C0F20000FEF739FFE4
:106ED000FFF779F84EF2AC50C0F20000FEF731FF38
:106EE000FFF771F80120C0B22100FEF730F9C0B100
:106EF00094B14DF6C423C0F200034EF2E452C0F246
:106F0000000200930CAB20211CA805F0E7FE1CA892
:106F1000FEF717FFFFF757F84DF61843C0F20003CE
:106F2000EBE74EF29850C0F20000FEF70AFFFFF7C1
:106F30004AF84AF6AA23C5F255530C934EF2F45080
:106F4000C0F20000FEF7FDFE4EF6B063C0F2000393
:106F50009E6832681D68596828009047EFF31087D3
:106F60004EF21003CEF200031A68904600221A6017
:106F700072B6B368F0210132490228009847040034
:106F800048B974684FF6FC72C0F2010204230CA9E0
:106F90002800A04704004EF21003CEF20003424640
:106FA0001A6087F310884EF6B063C0F200039A6847
:106FB000526918689047FDF7F2FA44B94EF214602E
:106FC000C0F20000FEF7BDFE00231C930AE04EF263
:106FD0003060C0F20000FEF7B4FEF5E7C0461C9B2F
:106FE00001331C931C9A4AF21F13C0F207039A4202
:106FF000F4D9FEF7DBFC44F6AC03C2F20003012235
:107000001A704DF66040C0F20000FEF79AFEFEF7DF
:10701000F5FFC046ED4800207047012807D0022840
:107020000AD070B944F6DC00C2F2000008E044F671
:10703000D800C2F2000003E044F6E000C2F2000013
:1070400070470020FCE7F8B504000D00022800D9C5
:10705000C2E04EF69423C0F200038200D758FFF737
:10706000DCFF0600002800D1B8E02000FFF7D4FFC5
:10707000022805D844F2DC73C2F200031B5CE3B1C2
:1070800044F63013C2F200036200D35A9BB2312B94
:107090001BDD44F25462C2F20002125D032A1CD0CE
:1070A0007F1B7B1D052B26D9FA17BB185340322BAB
:1070B00029DC142B34DD322226E044F25463C2F280
:1070C000000304221A55042073E044F25463C2F210
:1070D000000305221A5505206BE0336044F61412B4
:1070E000C2F20002A1008B5044F25463C2F20003CA
:1070F00000221A55D4E744F25463C2F2000301227D
:107100001A55012055E0C8223368002F0ADDD31834
:1071100040F6E442934207DC002B07DA002305E047
:107120000A22F1E79B1AF3E740F6E44344F614120F
:10713000C2F20002A1008A589A4218DA44F62012DC
:10714000C2F200028A58AA4211DB44F60811C2F2C8
:107150000001A000425801324250022A0EDD44F2E2
:107160005463C2F2000306221A55062021E044F6B9
:107170000812C2F20002A10000208850336044F6D9
:107180001412C2F20002A1008B5044F62012C2F287
:1071900000028D5040F6E342934201DD052F09DCE9
:1071A000002B0FDD44F25463C2F2000300221A5593
:1071B0000020F8BD44F25463C2F2000302221A55C3
:1071C0000220F6E70537EDDA44F25463C2F2000319
:1071D00002221A550220ECE70320EAE70320E8E741
:1071E00010B544F6E003C2F20003186844F6DC036D
:1071F000C2F20003196844F6D803C2F200031A6809
:10720000FEF761FA43425841C0B210BD10B5FFF716
:1072100004FF08B1006810BD0020FCE7022805D873
:1072200044F25463C2F20003185C70470320FCE789
:10723000022816D844F25463C2F2000303221A54FF
:1072400044F62013C2F2000380000022C25044F62C
:107250001413C2F20003C25044F60813C2F2000332
:10726000C250704744F6E013C2F200031B7833B1FA
:1072700083001B181A019B186420B3FBF0F07047C1
:1072800010B54EF65461C0F2000145F28040C2F2E2
:10729000000004F0ADF910BDF0B583B001930029F2
:1072A00000DCA5E144F6E014C2F20004247834B115
:1072B0008C0064182101091B642491FBF4F1272838
:1072C00000DC95E1411ACC170E19664040F6804467
:1072D000A64200DD8CE10B9C647864B2313C022C48
:1072E00000D900241568AC4644F6C015C2F200056A
:1072F000A70063467B5144F6B415C2F200057851ED
:107300000C9B0D98834220DD44F6CC10C2F20000A5
:10731000005DD0B944F6CC10C2F20000012505553D
:1073200060000519ED0044F26863C2F200039C4658
:1073300065440027EF602F610019C00044F2B0637C
:10734000C2F200039C466044C76044F6CC10C2F20F
:107350000000005D002800D1A5E00C9B0D99591A92
:10736000CD174819684014282DDD44F26866C2F232
:10737000000660000519ED00B44665440027EF6083
:1073800029610019C00080594143322904DC32319F
:1073900000DB2DE1012001E001204042002803DA5A
:1073A0001168002900D123E1116809181160019BBF
:1073B000994200D913601068FFF754FF0A9BD9B2B5
:1073C000099B984714E160000019C00044F268630B
:1073D000C2F200039C466044C5686D18C5604669EA
:1073E000B54204DD60000019C0006044C660600062
:1073F0000019C00044F26863C2F200039C46604476
:10740000C5687642B54200DAC66044F26866C2F2E8
:10741000000660000519ED00B44665442F69CF1BD6
:1074200029610319DB009E594E436B68ED685D438B
:1074300040F2E83C95FBFCF50019C00044F268639B
:10744000C2F200039C466044806847437619F619EF
:10745000002909DDC80F40184010444248B11529E1
:1074600009DD0A24644209E00A3600DBC0E0012499
:1074700004E001246442002C00D1B9E0002C03DABE
:107480001168002900D1B3E0116809191160019B4E
:10749000994200D913601068FFF7E4FE0A9BD9B245
:1074A000099B9847A4E0089B9E4244DD44F2B066E5
:1074B000C2F2000660000519ED00B44665440027DD
:1074C000EF6029610019C00080594843030032333E
:1074D00008DA4A4891FBF0F098B1494CA14211DA20
:1074E000052011E0322800DC82E06420404291FB5C
:1074F000F0F0E8B140F25724A14203DD05204042FC
:1075000002E00120002873D0002802DA1168002967
:107510006ED0116809181160019B994200D913605F
:107520001068FFF79FFE0A9BD9B2099B98475FE05E
:1075300001204042E6E760000019C00044F2B06359
:10754000C2F200039C466044C5686D18C560466978
:10755000B54204DD60000019C0006044C6606000F0
:107560000019C00044F2B063C2F200039C466044BC
:10757000C5687642B54200DAC66044F2B067C2F22E
:10758000000760000519ED00BC4665442E698E1B9E
:1075900029610319DB00DF5979436F68ED687D438A
:1075A00040F2E83795FBF7F5180044F2B063C2F2F9
:1075B00000039C46604480684643491989190B00C2
:1075C000643304DB642913DD0120404200E0012024
:1075D00000280FDB116809181160019B994200D93E
:1075E00013601068FFF73EFE0A9BD9B2099B9847CB
:1075F00003B0F0BD11680029ECD1F9E770FEFFFF80
:10760000A1F6FFFFF0B5CE46474680B59FB045F2E4
:107610003733C2F200031B78042B00D16DE244F62D
:10762000EE13C2F200031B782BB144F63B13C2F2F7
:1076300000031B7893B144F63713C2F200031B78A2
:10764000002B00D157E244F63713C2F200030022A8
:107650001A700023002500200024B4E044F63B13F8
:10766000C2F2000301221A7044F6EE13C2F20003C4
:1076700000221A7001F03EF9050008AE1E236B448B
:1076800098463100180001F056F940F6E44428000D
:10769000604340F6FF75B0FBF5F044F63817C2F2D0
:1076A00000073B7844F6A812C2F200025B00D052F9
:1076B000424612886243B2FBF5F244F69C11C2F2D4
:1076C0000001CA5232886243B2FBF5F244F69011CF
:1076D000C2F20001CA5201F018F9060009AB98463F
:1076E00022236B4499464146180001F03CF9664359
:1076F000B6FBF5F63B7844F68412C2F200025B005A
:10770000D6524A4612886243B2FBF5F244F678112B
:10771000C2F20001CA52424612886243B2FBF5F23D
:1077200044F66C11C2F20001CA5201F0F9F80600E9
:107730000AAB984626236B4499464146180001F04F
:107740002AF96643B6FBF5F63A7844F66013C2F2BE
:10775000000351005E524B461B886343B3FBF5F3B5
:1077600044F65410C2F20000435243461B88634360
:10777000B3FBF5F344F64810C2F200004352013265
:10778000D3B23B70042B00D855E700223A7044F680
:107790003713C2F2000301321A704CE744F6A81105
:1077A000C2F200015A00515A641844F69C11C2F208
:1077B0000001515A401844F69011C2F20001525A89
:1077C000AD1801339BB2042BE8D90523B4FBF3F4C5
:1077D000B0FBF3F0B5FBF3F3A1B244F63012C2F202
:1077E00000029180C01AC317C018584045002D18D8
:1077F00044F2DC73C2F200039B7823B344F6B50372
:10780000C2F200031B781BBB44F6E003C2F2000384
:10781000196844F26062C2F2000240F25E130593FE
:1078200004954EF2FC63C0F200030393012302931C
:107830004AF21713C0F20003019328230093B433D4
:107840002000FFF729FD002300250020002461E02F
:107850004EF2B461C0F2000122000AA805F072FAEB
:107860000AA8FEF76EFA4EF2C061C0F200012A00CB
:107870000AA805F067FA0AA8FEF763FA44F2606600
:10788000C2F2000632684EF2CC61C0F200010AA8D2
:1078900005F058FA0AA8FEF754FA3068FFF7E2FC40
:1078A00002004EF2DC61C0F200010AA805F04AFABB
:1078B0000AA8FEF746FA44F6E013C2F200031B786A
:1078C00073B14EF2A462C0F200024EF2EC61C0F25B
:1078D00000010AA805F036FA0AA8FEF732FA93E783
:1078E0004EF2AC62C0F20002EFE744F68411C2F23D
:1078F00000015A00515A641844F67811C2F200018E
:10790000515A401844F66C11C2F20001525AAD1897
:1079100001339BB2042BE8D90523B4FBF3F4B0FB8D
:10792000F3F0B5FBF3F3A1B244F63012C2F2000259
:107930001180C01AC317C018584045002D1844F2D2
:10794000DC73C2F200031B783BB344F6B503C2F20A
:1079500000031B7833BB44F6DC03C2F20003196852
:1079600044F25C62C2F2000240F29A13059304955D
:107970004EF24473C0F200030393012302934AF2D0
:107980005313C0F200030193282300930533FF3300
:107990002000FFF781FCFCF702FE002300250020F9
:1079A000002461E04EF20071C0F2000122000AA83A
:1079B00005F0C8F90AA8FEF7C4F94EF20C71C0F23E
:1079C00000012A000AA805F0BDF90AA8FEF7B9F9D6
:1079D00044F25C66C2F2000632684EF21871C0F2E0
:1079E00000010AA805F0AEF90AA8FEF7AAF9306866
:1079F000FFF738FC02004EF22871C0F200010AA81D
:107A000005F0A0F90AA8FEF79CF944F6E013C2F2CB
:107A100000031B7873B14EF2A462C0F200024EF272
:107A20003871C0F200010AA805F08CF90AA8FEF727
:107A300088F990E74EF2AC62C0F20002EFE744F63C
:107A40006011C2F200015A00515A641844F65411F0
:107A5000C2F20001515A401844F64811C2F2000126
:107A6000525AAD1801339BB2042BE8D90523B4FB5D
:107A7000F3F4B0FBF3F0B5FBF3F3A1B244F630122C
:107A8000C2F200025180C01AC317C018584040F615
:107A9000B933434340F2E83293FBF2F544F2DC732E
:107AA000C2F200035B7833B344F6B503C2F20003BD
:107AB0001B783BBB44F6D803C2F20003196844F2BA
:107AC0005862C2F2000240F25E13059304954EF232
:107AD0009073C0F200030393002302934AF28F13C2
:107AE000C0F20003019328230093B4332000FFF772
:107AF000D3FBFCF754FDFCF752FD1FB0C0BCB946E8
:107B0000B046F0BD4EF24871C0F2000122000AA852
:107B100005F018F90AA8FEF714F94EF25471C0F2F4
:107B200000012A000AA805F00DF90AA8FEF709F9D4
:107B300044F25866C2F2000632684EF26071C0F23A
:107B400000010AA805F0FEF80AA8FEF7FAF8306866
:107B5000FFF788FB02004EF27071C0F200010AA824
:107B600005F0F0F80AA8FEF7ECF844F6E013C2F2CC
:107B700000031B7873B14EF2A462C0F200024EF211
:107B80008071C0F200010AA805F0DCF80AA8FEF72F
:107B9000D8F88FE74EF2AC62C0F20002EFE770B5A2
:107BA00044F64413C2F200031A6801321A6044F624
:107BB0003913C2F200031B780BB344F63A12C2F237
:107BC000000213780133DBB21370022B17D944F68D
:107BD0003913C2F2000300221A7044F63C13C2F2B9
:107BE00000031B785BB144F63B13C2F200031B7821
:107BF0002BB944F63613C2F2000301321A7044F670
:107C00004413C2F200031B68012B1FD044F6441337
:107C1000C2F200031B68052B00D171E044F6441347
:107C2000C2F200031B682F2B0FD944F64413C2F293
:107C3000000300221A6044F63C13C2F200031A70DB
:107C400044F63613C2F200031A7070BD002140F6EC
:107C5000123002F0BAFA012140F6123002F0D3FAE3
:107C6000002140F6123002F0ECFA44F2DC73C2F26A
:107C700000039B78F3B344F26063C2F200031A6816
:107C800053019B1858006423B0FBF3F044F2DC73FB
:107C9000C2F200031B787BB344F25C63C2F20003C0
:107CA0001A6853019B185D006423B5FBF3F544F299
:107CB000DC73C2F200035B7803B344F25863C2F290
:107CC00000031A6853019B185C006423B4FBF3F4AF
:107CD000012102F020FA0121280002F03AFA0021E5
:107CE000200002F054FA44F63C13C2F200030022D2
:107CF0001A70AAE71420C9E71425D8E71424E7E787
:107D0000002141F6641002F060FA012141F664108E
:107D100002F079FA002141F6641002F092FA44F27E
:107D2000DC73C2F200039B78FBB344F26063C2F2DF
:107D300000031868012102F0EEF944F2DC73C2F28C
:107D400000031B78B3B344F25C63C2F2000318680B
:107D5000012102F0FEF944F2DC73C2F200035B7809
:107D60006BB344F25863C2F200031868002102F0BA
:107D70000EFA44F63C13C2F200030121197044F6D6
:107D80003B13C2F2000300221A7044F63A13C2F207
:107D900000031A7044F63913C2F20003197044F656
:107DA0003613C2F200031A704FE70121142002F0CB
:107DB000B2F9C2E70121142002F0CBF9CBE7002190
:107DC000142002F0E4F9D4E710B544F63913C2F2F6
:107DD00000031B780BB344F63A12C2F20002137888
:107DE0000133DBB21370022B17D944F63913C2F2F8
:107DF000000300221A7044F63C13C2F200031B7801
:107E00005BB144F63B13C2F200031B782BB944F676
:107E10003613C2F2000301321A7044F64012C2F265
:107E20000002138801339BB2138040F2F312934295
:107E30000DD944F64013C2F2000300221A8044F226
:107E40006563C2F200031A7801214A401A700021CA
:107E500041F6641002F0B9F9012141F6641002F014
:107E6000D2F9002141F6641002F0EBF944F26563A7
:107E7000C2F200031B78002B4BD044F2DC73C2F239
:107E800000039B7853BB44F2DC73C2F200031B78FF
:107E9000002B2CD144F2DC73C2F200035B78002B80
:107EA0002ED144F63C13C2F200031B78ABB944F662
:107EB0003C13C2F2000301221A7044F63B13C2F2D3
:107EC00000030021197044F63A13C2F2000319703E
:107ED00044F63913C2F200031A7010BD44F2606315
:107EE000C2F200031868012102F015F9CBE744F251
:107EF0005C63C2F200031868012102F02AF9C9E7A5
:107F000044F25863C2F200031868002102F03FF9FE
:107F1000C7E70121142002F0FEF80121142002F02D
:107F200018F90021142002F032F944F63C13C2F291
:107F3000000300221A70D0E744F64013C2F2000397
:107F400000221A8044F26563C2F2000301321A7003
:107F5000704770B544F63913C2F200031B780BB3B7
:107F600044F63A12C2F2000213780133DBB2137006
:107F7000022B17D944F63913C2F2000300221A70FB
:107F800044F63C13C2F200031B785BB144F63B138A
:107F9000C2F200031B782BB944F63613C2F2000379
:107FA00001321A7044F63E12C2F200021388013305
:107FB0009BB2138041F28732934211D944F63E13AB
:107FC000C2F2000300221A8044F26463C2F200038A
:107FD00001321A7044F63D13C2F2000300221A70F7
:107FE00044F63E13C2F200031B8840F2DB52934278
:107FF0005AD944F2DC73C2F200039B78002B00D004
:10800000D6E044F2DC73C2F200031B78002B00D0F0
:10801000D7E044F2DC73C2F200035B78002B00D09F
:10802000D8E044F63D12C2F2000213780133DBB20D
:1080300013702F2B02D9130000221A7044F63D133F
:10804000C2F200031B782B2B00D9CCE0002141F6B3
:10805000641002F0BAF8012141F6641002F0D3F87E
:10806000002141F6641002F0ECF844F63C13C2F231
:1080700000031B78002B00D00AE144F63C13C2F247
:10808000000301221A7044F63B13C2F200030021E0
:10809000197044F63A13C2F20003197044F639130A
:1080A000C2F200031A70F3E0FA22B3FBF2F14A4382
:1080B0009B1A9BB23BB944F26463C2F200031A7884
:1080C00001214A401A70002141F6641002F07DF847
:1080D000012141F6641002F096F8002141F6641087
:1080E00002F0AFF844F26463C2F200031B78002B85
:1080F0004BD044F2DC73C2F200039B7853BB44F2D2
:10810000DC73C2F200031B786BBB44F2DC73C2F277
:1081100000035B7883BB44F63C13C2F200031B7878
:10812000002B00D0B4E044F63C13C2F2000301225D
:108130001A7044F63B13C2F200030021197044F692
:108140003A13C2F20003197044F63913C2F2000365
:108150001A709DE044F26063C2F2000318680121C6
:1081600001F0D9FFCBE744F25C63C2F20003186868
:10817000012101F0EEFFC8E744F25863C2F20003A8
:108180001868002102F003F8C5E70121142001F06E
:10819000C2FF0121142001F0DCFF0021142001F0B6
:1081A000F6FF44F63C13C2F2000300221A706FE09F
:1081B00044F26063C2F200031868012101F0ABFFD2
:1081C0001FE744F25C63C2F200031868012101F06A
:1081D000C0FF1EE744F25863C2F200031868002192
:1081E00001F0D5FF1DE7002140F6123001F0EDFF50
:1081F000012140F6123002F006F8002140F612305C
:1082000002F01FF844F2DC73C2F200039B78002BEB
:108210003FD044F26063C2F200031A6853019B1816
:1082200058006423B0FBF3F044F2DC73C2F20003A5
:108230001B78002B2FD044F25C63C2F200031A6853
:1082400053019B185D006423B5FBF3F544F2DC7326
:10825000C2F200035B7803B344F25863C2F2000336
:108260001A6853019B185C006423B4FBF3F40121EA
:1082700001F051FF0121280001F06BFF00212000D7
:1082800001F085FF44F63C13C2F2000300221A708D
:1082900070BD1420C8E71425D8E71424E7E744F696
:1082A0003E13C2F2000300221A8044F26463C2F259
:1082B000000301321A7044F63D13C2F2000300229B
:1082C0001A70704710B545F23733C2F200031B78BD
:1082D000DAB2012B05D0022A06D042B9FFF75FFCC3
:1082E00010BDFFF771FDFBE7FFF733FEF8E7FFF77F
:1082F00056FCF5E744F64412C2F200020023136074
:1083000044F63C12C2F20002137044F63B12C2F271
:108310000002137044F63912C2F20002137044F6E0
:108320003A12C2F200021370704770B544F6D212CE
:10833000C2F20002138801339BB21380013BFA2181
:10834000B3FBF1F251435B1A9CB292B200237C2141
:10835000A1425B41DDB2042A4AD8002141F66410F3
:1083600001F033FF012141F6641001F04CFF0021C0
:1083700041F6641001F065FF44F62C13C2F20003CD
:108380001B78AB4233D044F62C13C2F200031D70AD
:108390007C2C52D844F2DC73C2F200039B78002B91
:1083A00045D044F26063C2F200031868012101F075
:1083B000B2FE44F2DC73C2F200031B78002B38D00B
:1083C00044F25C63C2F200031868012101F0C1FEAF
:1083D00044F2DC73C2F200035B78002B2BD044F232
:1083E0005863C2F200031868002101F0D0FE70BD8E
:1083F000002141F6641001F0E8FE012141F664100D
:1084000001F001FF002141F6641001F01AFF012183
:10841000002001F080FE0121002001F09AFE0021E1
:10842000002001F0B4FE042000F026FCDFE7142059
:10843000BCE71420C9E71420D6E70121142001F07D
:108440006AFE0121142001F084FE0021142001F0B5
:108450009EFECCE7F8B5CE46474680B544F6B2134B
:10846000C2F2000301221A7045F23733C2F2000350
:108470001B78042B3AD045F23933C2F200031B7843
:10848000002B55D044F62E12C2F20002138801339D
:108490009BB21380312B2BD9130000221A8045F296
:1084A0003833C2F200031A7801214A40D2B21A705E
:1084B0001B780BB3002141F6641001F086FE012108
:1084C00041F6641001F09FFE002141F6641001F0B6
:1084D000B8FE01213C2001F01EFE01213C2001F0EC
:1084E00038FE00213C2001F052FE01E0FFF71DFFA5
:1084F000C0BCB946B046F8BD002141F6641001F099
:1085000064FE012141F6641001F07DFE002141F678
:10851000641001F096FE0121142001F0FCFD012100
:10852000142001F016FE0021142001F030FEDFE7D8
:10853000FCF7F2FD0028DBD044F6E013C2F20003A2
:108540001B7883B344F26066C2F200063368994632
:1085500044F25C65C2F200052B68984644F2586408
:10856000C2F2000427684B469B004B441A019B183B
:108570006422B3FBF2F3336043469B00434419018A
:108580005B18B3FBF2F32B60BB00DB1919015B181E
:10859000B3FBF2F32360FFF795FE4B46336043468F
:1085A0002B602760A4E7FFF78DFEA1E744F6D21306
:1085B000C2F2000300221A8044F6D013C2F2000374
:1085C0001A7044F6CF13C2F200031A7045F2373323
:1085D000C2F2000304221A707047F0B5DE46574617
:1085E0004E464546E0B5A3B001929C4672B60023C4
:1085F00006E05A008418248802ADAC5201339BB2C5
:108600008B42F6D362B601398BB29B466346019A20
:10861000D718BBB2984640F2000927E0B8421DD9EE
:10862000560002AD755BAA4602AD70534C0028009F
:1086300055462552013A92B28A4212D3480002AE00
:10864000805BB842EAD25C00A65B02AD6053480092
:10865000465301339BB2013189B2EDE7013189B252
:10866000EAE743450ED3013B9BB29B46D94512D264
:108670004B465B445B105B0002AA9F5A49465A4630
:108680004B46D9E7019B9A4203D2013293B29946F5
:10869000ECE7D946EAE7002307E00198420002A987
:1086A000525A9B18013082B20192019A4245F4D38A
:1086B000B3FBFCF398B223B0F0BCBB46B246A9466C
:1086C000A046F0BD052817D88000104B1B589F46C8
:1086D0004EF25860C0F2000070474EF26C60C0F27B
:1086E0000000F9E74EF27860C0F20000F4E74EF2C5
:1086F0008460C0F20000EFE74EF25060C0F200006C
:10870000EAE74EF29460C0F20000E5E7ACEA000050
:1087100070B544F6EC12C2F2000245F29C34C2F28B
:1087200000040921200003F042FB44F6E812C2F2E3
:1087300000021621200003F03AFB44F6E613C2F2D1
:10874000000301221A7044F63C13C2F200031B78A6
:108750002BB344F63913C2F200031B78FBB944F67D
:10876000EE13C2F200031B78CBB944F6EA13C2F24F
:1087700000031A783F2A13D944F6EA13C2F2000321
:108780001B783F2B0BD944F6EA13C2F200030022F8
:108790001A7044F6EE13C2F2000301321A7070BD73
:1087A000520044F6F053C2F200039C466244250096
:1087B0000221200003F0FBFA44F6EA14C2F200049E
:1087C0002278520044F67053C2F200039C46624481
:1087D0000021280003F0EBFA2278520044F6F0431F
:1087E000C2F200039C4662440121280003F0DFFA34
:1087F0002278520044F67043C2F200039C46624461
:108800001421280003F0D3FA2278520044F6F03302
:10881000C2F200039C4662440521280003F0C7FA17
:108820002278520044F67033C2F200039C46624440
:108830000621280003F0BBFA2278520044F6F02308
:10884000C2F200039C4662440821280003F0AFFAFC
:108850002278520044F67023C2F200039C46624420
:108860001321280003F0A3FA2278520044F6F013F3
:10887000C2F200039C4662440721280003F097FAE5
:1088800023780133237077E710B54EF69041C0F29C
:10889000000145F29C34C2F20004200003F0C0FC49
:1088A0004EF67C41C0F20001200003F0E5FD00B966
:1088B00010BD4DF6A433C0F200034EF6C422C0F240
:1088C00000024EF29470C0F20000742103F0E9FE41
:1088D00010B545F29C30C2F2000003F042FA4CF2AF
:1088E0000003C4F205031988014A0A431A8010BD27
:1088F0000080FFFF10B544F6F050C2F200002023C4
:1089000010224021FFF769FE10BD10B544F67040FB
:10891000C2F20000202310224021FFF75EFE10BDAE
:1089200010B544F6F020C2F20000202310224021AE
:10893000FFF753FE10BD70B505000C0044F67050F3
:10894000C2F20000202310224021FFF746FE2880BB
:1089500044F6F040C2F20000202310224021FFF72D
:108960003CFE208070BD70B505000C0044F6F03070
:10897000C2F20000202310224021FFF72EFE2880A3
:1089800044F67030C2F20000202310224021FFF78D
:1089900024FE208070BD70B505000C0044F67020E8
:1089A000C2F20000202310224021FFF716FE28808B
:1089B00044F6F010C2F20000202310224021FFF7FD
:1089C0000CFE208070BD44F6EC13C2F20003188840
:1089D00080B2704700B583B000236A46D38045F269
:1089E0009C30C2F2000006320A2103F0E0F96B4627
:1089F000D88803B000BDFFFF10B544F6EC13C2F2F7
:108A000000031B8844F6E812C2F20002108844F604
:108A1000DC12C2F2000211685B18136044F6D8122F
:108A2000C2F2000211684018106044F6D611C2F27A
:108A300000010A780132D2B20A70032A24D99B08B5
:108A4000800884B244F6DC12C2F2000200211160F8
:108A500044F6D812C2F20002116044F6D612C2F2F5
:108A60000002117084B14FF6FF710B405A00D2180A
:108A7000D40112199200D318014093FBF1F3044A78
:108A800094466344992B00D910BDFFF78FFDFBE797
:108A90007BFCFFFF10B5FFF796FF44F2DC73C2F2D8
:108AA00000031A785A789B7840F6FF73984201D9F0
:108AB00040F6FF7080B244F6E513C2F200031B7863
:108AC000022B3CD00ED8BBB1012B09D140F6ED12E0
:108AD000904240D80D3AFF3A904211D802230FE05D
:108AE00003230DE0032B05D140F25B72904207D9BE
:108AF000022305E0032303E040F68912904228D9BF
:108B000044F6E512C2F200021370032B27D044F69C
:108B1000E413C2F2000300221A7044F6E313C2F217
:108B200000031A7044F6E413C2F200031B782BB161
:108B300044F6E313C2F2000301221A7010BD40F69E
:108B40004512904209D840F229729042D8D80323A6
:108B5000D6E70123D4E70023D2E70123D0E744F688
:108B6000E413C2F200031B78002BDBD144F6E412BD
:108B7000C2F2000201331370D4E710B590B00400C4
:108B8000FFF7A0FD03004EF2AC72C0F200024021DC
:108B9000684604F0A3F86846FDF7D3F8FBF7FFFC3E
:108BA000FBF7BCFE01002000FCF740FEFBF7F7FCE2
:108BB00045F26434C2F20004002240F20941200070
:108BC00001F0A4FE002240F20841200001F09EFEC8
:108BD000FBF7E5FC40F2E8310A2003F068FDFBF703
:108BE000DEFC0121002001F096FA0121002001F0B5
:108BF000B0FA0021002001F0CAFA0021002001F0A3
:108C0000E4FA0121002001F0FEFA0021002001F029
:108C100018FB012240F20621200001F077FE01221C
:108C200040F20721200001F071FE012240F60F11F1
:108C3000200001F06BFE40F2E8310A2003F037FD1E
:108C4000FBF7ADFC002240F60D11200001F05EFEA6
:108C500045F26434C2F20004002240F208412000D0
:108C600001F054FE002240F20941200001F04EFEC6
:108C7000FBF795FC30BFEBE744F6E213C2F20003CA
:108C80001B7853B944F6E213C2F2000301221A70B2
:108C900044F6E113C2F200031870704710B544F6B1
:108CA000D513C2F200031A7844F6E513C2F20003AA
:108CB0001B789A4205D044F6D412C2F20002002179
:108CC000117044F6D512C2F200021370022B17D0B5
:108CD00006D88BB1012B17D10120FBF75FFE0EE008
:108CE000032B11D144F6E313C2F200031B7833B116
:108CF0000120FFF7C1FF02E00020FBF74FFE10BD8F
:108D00000220FBF74BFEFAE70620FBF747FEF6E7EB
:108D100010B544F6E213C2F200031B7803B910BD8C
:108D200044F6E113C2F200031878FFF726FF10B5EE
:108D300045F26434C2F20004012240F208412000EE
:108D400001F0E4FD012240F20941200001F0DEFDC6
:108D500010BD40F6BB13984212D944F6E513C2F297
:108D6000000300221A7044F6E413C2F2000300224A
:108D70001A7044F6E313C2F2000300221A7070471F
:108D800040F61313984206D944F6E513C2F20003E5
:108D900001221A70E7E740F22973984206D944F697
:108DA000E513C2F2000302221A70DCE744F6E51371
:108DB000C2F2000303221A7044F6E413C2F2000365
:108DC000023A1A70D5E70020704744F67063C2F289
:108DD00000031B6833B144F67063C2F200031A68E3
:108DE000013A1A6070470369C268934204D88168E7
:108DF0008A1AD01801387047981A0138FBE7F8B57D
:108E0000CE46474680B504000E001700C56883684B
:108E100099465B1B984693420BD94068401903F072
:108E2000FDFFBFF35F8FED19E560C0BCB946B046EA
:108E3000F8BD406840191A0003F0F0FF4B46ED1AE8
:108E4000ED196068310041442A0003F0E7FFBFF3E9
:108E50005F8FE560E9E7F8B5CE46474680B5060086
:108E600088461700C46840F2000915E0B2681B1B71
:108E7000D218013A15E0706800192A00414603F043
:108E8000CDFFA944A8447F1B6419B368A34212D044
:108E9000BFF35F8FF46087B133699C42E6D21A1B3F
:108EA000013AB3681B1B934200D913003D009F4257
:108EB000E1D91D00DFE70024EAE74846C0BCB94617
:108EC000B046F8BD10B545F28424C2F20004A822D1
:108ED0000021200003F056FF0323236163614EF25B
:108EE000C072C0F20002A26144F68463C2F20003C1
:108EF000E36140F2004323620023A3626362E36202
:108F0000226644F67462C2F2000262661022A26611
:108F10002367E3666367BFF35F8F0CE00F22D21A0B
:108F20004EF6D021C0F20001895645F28422C2F2E9
:108F30000002D15401330F2BF0D9BFF35F8F10BD66
:108F4000F8B50E001500431C5C00E418E40045F27F
:108F50008423C2F200039C46644443001B18DB00D8
:108F60006344DF6A012F0ED0022F1AD0F7B9200018
:108F7000FFF739FF854212D82A0031002000FFF7A1
:108F80003EFF2F000BE02000FFF72DFF2F00854252
:108F900000D907003A0031002000FFF730FF380009
:108FA000F8BD2000FFF757FF0700F8E70027F6E7B6
:108FB000F8B504000D00160045F28423C2F2000348
:108FC0001B78532B0CD1EFF31087012181F310880C
:108FD000320029002000FFF7B3FF87F31088F8BDA7
:108FE000FFF770FFEFE710B504008268531C40687C
:108FF000834205D820688154A360E3680133E360AD
:10900000A26863689A4200D010BD21682069FFF70A
:10901000CFFFA368984203D001235B42E360F3E7EC
:109020000023A360F0E7F8B5DE4657464E464546B6
:10903000E0B581460F0015001E000A9B9A460B9A68
:109040000B0040F2010804E0B3FBF5F340F2010C21
:10905000E044AB42F8D2B04500D2B046012319003B
:1090600011408B46134217D15346ABB1920702D53C
:10907000C6B1202400E0202453466BB1C2450BD971
:1090800001235B429C46E24421004846FFF7ABFFC8
:109090004B46DB68002BEFDA4B46DB68002B26DB08
:1090A000012403E03024E7E7013E6C43012EFBD8A6
:1090B000B7FBF4F39D42F8D900E01C00B7FBF4F2D3
:1090C00023005343FF1A4EF66833C0F2000399564B
:1090D0004846FFF788FF4B46DB68002B03DBB4FBF9
:1090E000F5F3AC42E9D25B460BB153462BB9F0BC69
:1090F000BB46B246A946A046F8BD5346002BF6D063
:10910000C245F4D901235B429C46E24420214846F3
:10911000FFF769FF4B46DB68002BEEDAE7E7F0B5B7
:10912000DE4657464646C0B582B007008A4616005E
:109130009B460A9B9846CB17CC185C40012502E061
:1091400094FBF6F40135A642FADD5D4500D25D469A
:1091500043464BB15346002B02DB0B9B5B0703D509
:1091600001235B429C46E0440B9B9B0701D55B4679
:1091700023B10B9BDB0701D44346CBB9FB68002B23
:1091800010DB5346002B24DB0B9B5B0728D4FB68CA
:10919000002B07DB03230B9A1340022B25D0FB681F
:1091A000002B39DA02B0E0BCBB46B246A846F0BD9F
:1091B0004346002BE2D0A845E0D901235B429C4600
:1091C000E04420213800FFF70EFFFB68002BEFDAA8
:1091D000D4E75B429A462D213800FFF704FFD6E71B
:1091E0002B213800FFF7FFFED1E75B46002BD6D1DD
:1091F0004346002BD3D04346002BD0D0A845CED930
:1092000001235B429C46E04430213800FFF7EBFE2F
:10921000FB68002BEFDAC2E70B9B019343460093F8
:109220005B46320051463800FFF7FDFEBAE7FFFF0C
:10923000F0B599B006000C00150003AB1393402362
:109240001493002315931790169369E00022243994
:109250000DE000210AE0302B03D102231A43013430
:1092600004E0002102E001231A43013481B100230C
:10927000E3562D2BF7D0EEDC232B05D02B2BE8D19A
:1092800004231A430134F1E708231A430134EDE7BC
:109290000020002161560B00303BDBB2092B06D8C1
:1092A000013483001B185B0058183038F1E72E2971
:1092B00003D000230021615613E00134002305E0B0
:1092C00001349900CB185B00DB19303B0027E757CE
:1092D00039003039C9B20929F2D9EBE7013400214C
:1092E00061566C29FAD06829F8D0252967D013DB9C
:1092F000782911DC58290FDB5839CFB2202F0BD831
:10930000B9003A4F79588F462B681A1D2A60002100
:10931000595613A8FFF767FE0134169B002B53DB49
:1093200000216156013400294ED025298ED013A882
:10933000FFF759FEF1E729680F1D2F6009680192B8
:1093400000900A2213A8FFF7EAFEE5E729680F1D3F
:109350002F600968019200900A2213A8FFF763FEAC
:10936000DAE729680F1D2F6009680192009010222A
:1093700013A8FFF758FECFE72B681A1D2A601F6855
:109380005FB10021795601370029C5D013A8FFF736
:109390002AFE169B002BF4DABEE74EF2CC77C0F221
:1093A0000007EEE72B681A1D2A6019680023019355
:1093B00008330093102213A8FFF735FEACE72521F0
:1093C00013A8FFF710FEA7E7169B002B05DD159AE3
:1093D00032B9169B159A9B181693169819B0F0BDC2
:1093E00003A93000FFF7E4FDF3E7C046E4EA00001C
:1093F0000EB400B582B003AB02CB019301AAFFF714
:1094000017FF02B008BC03B018470379013BDBB279
:10941000022B05D845F23633C2F2000301221A703E
:10942000704710B54EF62461C0F2000145F240408D
:10943000C2F2000001F092FC10BD10B582B00C0029
:109440006B46D91D087045F23633C2F20003002284
:109450001A7045F24040C2F200000123013201F0CF
:10946000F8FBE8B945F23633C2F200031B78002B53
:10947000F8D045F23633C2F2000300221A7045F2EA
:109480004040C2F2000000230132210001F0DAFB6B
:1094900030B945F23633C2F200031B78002BF8D006
:1094A00002B010BD00B583B06B461871597145F21A
:1094B0003633C2F2000300221A7045F24040C2F275
:1094C00000000023023201A901F0C3FB30B945F2CC
:1094D0003633C2F200031B78002BF8D003B000BD76
:1094E00030B583B005000C006B46D91D00230B700E
:1094F0007520FFF7A2FF30BB6B4607331B78A342F2
:1095000024D165B168215020FFF7CCFF48B9032171
:109510004E20FFF7C7FF68B9002003B030BD6B21B4
:10952000F1E74EF2D470C0F20000FCF70AFC012013
:109530004042F2E74EF2F470C0F20000FCF701FC8A
:1095400001204042E9E701204042E6E70120404295
:10955000E3E730B583B00C0015006B46D91D0870E9
:1095600045F23633C2F2000300221A7045F2404041
:10957000C2F200000123013201F06BFBE8B945F2B1
:109580003633C2F200031B78002BF8D045F2363395
:10959000C2F2000300221A7045F24040C2F20000FD
:1095A00000232A00210001F04DFB30B945F236338B
:1095B000C2F200031B78002BF8D003B030BD30B5E9
:1095C00083B00500062269461F20FFF7C2FF08B9D5
:1095D000002311E000232B806B80AB8001204042F0
:1095E0000DE05A0069468C5C511C6846415C2402BF
:1095F0002143A9520133DBB2022BF2D9002003B080
:1096000030BD70B505006C21FFF76AFF040098B10A
:1096100039212800FFF764FF0400D0B945F22E334A
:10962000C2F2000302221A704EF62800C0F20000B7
:10963000FCF787FB200070BD45F22E33C2F2000319
:1096400001221A704EF61000C0F20000FCF779FB00
:10965000F0E745F22E33C2F2000300221A704EF6F4
:109660004000C0F20000FCF76CFB01246442E1E71B
:1096700010B545F22E33C2F200031B7813B1FFF789
:109680009EFF10BD03804380838001204042F8E7A5
:1096900045F23733C2F200031B78042B7BD045F22E
:1096A0003033C2F2000300229B5E6BB945F23033C7
:1096B000C2F2000302229B5E33B945F23033C2F29C
:1096C000000304229B5E5BB30023C15E0222835E23
:1096D000DA179B1853409BB20422825ED0171218EF
:1096E000424092B2002922DD0120934200DA1300A9
:1096F00045F23732C2F2000211781278D1B2012A53
:1097000017D0022921D059BB002845D040F276421B
:10971000934226DD40F61D3293423FDC013120E0CA
:1097200045F23733C2F2000303221A7033E00020FF
:10973000DBE7002834D040F23C42934232DD40F671
:109740001D3293420DDD02210BE050B140F23C424C
:10975000934229DD40F65A02934202DC012100E0E7
:10976000012145F23733C2F200031B78DBB28B4292
:109770002FD044F2F863C2F200031B788B4215D05D
:1097800044F2F863C2F20003197045F22C33C2F2BE
:10979000000301221A8070470221E2E70221E0E77C
:1097A0000221DEE70021DCE70021DAE745F22C3276
:1097B000C2F20002138801339BB21380012BEAD955
:1097C00045F23733C2F200031970130000221A80E9
:1097D000E1E745F22C33C2F2000300221A8045F281
:1097E0003733C2F200031A7844F2F863C2F200037E
:1097F0001A70D0E7EFF31081012383F3108845F24C
:109800004453C2F200031B683BB940F60053C4F254
:1098100004030022DA704032DA7045F24453C2F297
:1098200000031A6801321A6081F31088704710B57E
:1098300045F23733C2F200031B78042B13D040F2F9
:10984000C11398421CD845F25033C2F200030022E3
:109850001A8045F24E32C2F20002138801339BB2E5
:109860001380042B00D810BD130000221A804EF67E
:109870005800C0F20000FCF764FAFEF797FEF2E72A
:1098800040F64E43984219D945F24E33C2F20003D6
:1098900000221A8045F25032C2F2000213880133CE
:1098A0009BB21380042BDED9130000221A8044F6E9
:1098B000E013C2F2000301321A70D4E745F24E33CE
:1098C000C2F2000300221A8045F25033C2F20003B4
:1098D0001A8044F6E013C2F200031B78002BC2D0BA
:1098E00040F6E933984212D845F24C32C2F20002F7
:1098F000138801339BB21380042BB4D913000022C8
:109900001A8044F6E013C2F200031A70ABE745F286
:109910004C33C2F2000300221A80A4E700B597B0CE
:10992000FBF78EFE002843D10A226A4402A96B4647
:10993000981DFBF7ADFE70B945F23033C2F200035B
:109940006A46063212881A8002AA12885A800A22AF
:109950006A4412889A8005AA04A903A8FBF7D0FEDE
:1099600088B9039A44F6E003C2F200031A60049A2D
:1099700044F6DC03C2F200031A60059A44F6D803E9
:10998000C2F200031A6006A8FBF792FF212809D053
:1099900020B9089A80235B049A4206D1FAF72AFE7E
:1099A00017B000BDFBF7B8FFF8E7FBF7B5FFF5E729
:1099B000FAF720FEF4E7F0B59FB045F24A33C2F261
:1099C00000031B78002B00D1BBE045F23933C2F213
:1099D00000031B78002B3DD045F24833C2F2000350
:1099E0001B882BB945F25E33C2F2000300221A80B5
:1099F00045F25830C2F20000FFF73AFE002800D0CE
:109A00007FE045F25E33C2F2000300221A8045F285
:109A10003C33C2F20003196845F25832C2F2000228
:109A20000024105F0918196059680224105F091892
:109A3000596099680420125E8A189A6045F248328B
:109A4000C2F20002138801339BB213801F2B18D877
:109A50001FB0F0BD0120FBF786FC0028C8D045F2FE
:109A60003933C2F2000301221A7045F23833C2F2D0
:109A700000031A7045F25E33C2F2000300221A801E
:109A8000B6E745F24A33C2F2000300221A7045F2EB
:109A90003933C2F200031A700020FBF764FC45F270
:109AA0003C30C2F200000368DA171F210A40D218C6
:109AB000521112B245F23034C2F2000422804568DD
:109AC000EB170B405B195B111BB263808068C517F5
:109AD00029400818401100B2A0804EF67001C0F273
:109AE0000001009006A803F02DF906A8FCF729F95B
:109AF0000423E25E0223E15E0023E05EFBF7ACFD9F
:109B0000A6E745F25E32C2F20002138801339BB22F
:109B10001380092B9CD9130000221A8045F2483388
:109B2000C2F200031A8045F23C33C2F200031A600D
:109B30005A609A604EF69400C0F20000FCF701F9FA
:109B400086E745F25830C2F20000FFF791FD002889
:109B500000D07DE745F25830C2F200000023C45E19
:109B60000223C55E0423C65E428845F23033C2F24A
:109B700000035988521A428082889B88D31A8380B6
:109B8000FFF786FD45F23A33C2F200031B78002B43
:109B900000D15DE745F25833C2F2000300215A5E5E
:109BA0000221585E0427DF5F45F23733C2F200031B
:109BB0001B784EF6B001C0F20001049303970290A7
:109BC000019200962B00220006A803F0BBF806A81D
:109BD000FCF7B7F83CE730B589B0FFF70BFEFAF7B2
:109BE000CFFEFFF7A4F8FEF74FFEFEF771FE00254B
:109BF000002420E044F6E613C2F2000300221A70AB
:109C000044F6E613C2F200031B78002BF8D044F6AA
:109C1000E613C2F2000300221A706B461A8045F266
:109C20009C30C2F200006A46092102F0C0F86B467F
:109C30001B88E4180135032DDCDDA00880B240F25A
:109C40003973984224D845F26434C2F200040122E8
:109C500040F20621200000F059FE012240F20721C7
:109C6000200000F053FE012240F60F11200000F00A
:109C70004DFE002240F20941200000F047FE002284
:109C800040F20841200000F041FEFAF788FCFCE7B2
:109C9000FFF75FF8FCF705F848F20002C0F2014256
:109CA00045F26430C2F2000040F2001100F0F2FE12
:109CB000FDF7E6FAFBF712F8FAF757FCFFF7B1FBEE
:109CC0000120FFF79EFC00F053F90200E8B900F014
:109CD000C1F9020010BB45F28040C2F2000001F061
:109CE000AAFAFFF71BFEFEF775FE40F2C113984279
:109CF0001DD940F64E43984200D879E044F6E0136F
:109D0000C2F2000301221A7072E04EF6DC01C0F2CA
:109D100000010020FFF76CFB00BED8E74EF6DC0127
:109D2000C0F200010020FFF763FB00BED3E7FEF79F
:109D30003DFC5DE0FAF733FC44F2FC63C2F2000341
:109D400000221A80FEF7E4FFFAF7FDFFFBF780F828
:109D5000FBF7C2FB45F25433C2F200031B78002B21
:109D600063D145F25232C2F20002138801339BB232
:109D70001380092B59D9FBF7E5FB45F25433C2F2A6
:109D8000000301221A7050E0FAF709FC44F2FC6368
:109D9000C2F2000300225A80FEF71CFEFFF747FDC7
:109DA0004DE0FAF7FCFB44F2FC63C2F20003002230
:109DB0009A80FBF7EFFFFEF76DFE4AE0FAF7EFFB44
:109DC00044F2FC63C2F200030022DA80FFF7F3FDE5
:109DD00049E0FAF7E4FB44F2FC63C2F2000300221C
:109DE0001A81FEF75BFF4AE0FAF7BBFD00286BD152
:109DF00044F6B213C2F200031B78002BF8D044F6ED
:109E0000B213C2F2000300221A70FAF7C8FBFBF784
:109E100049F9FDF7F7FB44F2FC62C2F20002138835
