:020000040000FA
:10000000680A002049010000DD0700001507000014
:1000100000000000000000000000000000000000E0
:1000200000000000000000000000000025090000A2
:100030000000000000000000ED070000590900006A
:10004000C9060000D5060000E5060000F506000020
:10005000050700005B0100004D030000F9010000EE
:100060005B01000099090000710400005B010000C1
:100070005B010000E90100005B0100006D09000068
:100080007D0900005B0100005B0100005B010000D6
:100090005B0100005B0100005B01000089090000BA
:1000A000250700005B0100005B0100005B01000010
:1000B0005B0100005B0100005B0100005B010000D0
:1000C00000F002F800F030F80CA030C8083824180E
:1000D0002D18671EA246AB4654465D46AC4201D180
:1000E00000F022F87E460F3EB6460FCC0126334282
:1000F00000D0FB1A3343A246AB461847F80A00006B
:10010000080B00000023002400250026103A01D32C
:1001100078C1FBD8520700D330C100D50B607047BF
:100120001FB51FBD10B510BD00F02BF81146FFF72D
:10013000F7FF00F059FC00F043F803B4FFF7F2FFBB
:1001400003BC00F049F80000074880470748004713
:10015000FEE7FEE7FEE7FEE7FEE7FEE704480549A7
:10016000034A054B7047000069090000C100000008
:1001700068020020680A002068020020704770476B
:100180007047754600F024F8AE46050069465346B0
:10019000C008C000854618B020B5FFF7DFFF60BC7F
:1001A000B64600260027C0C5C0C5C0C5C0C5C0C56D
:1001B000C0C5C0C5C0C5403D490849008D4670470F
:1001C00010B50446C046C0462046FFF7B6FF10BD36
:1001D000004870470000002001491820ABBEFEE730
:1001E000260002007047000080B502480068804782
:1001F00080BDC0467410000080B50248006880478A
:1002000080BDC0465C10000009490DE07D22D3008E
:1002100006E0082300E000BF5B1E0B42FBD1134643
:100220005A1E0B42F5D1401E0204EFD17047C04662
:10023000FFFF0000F0B51C489921C16301604160D7
:100240008160C1600161194800210160A520C005DD
:10025000816053221406A160154A1160152296068A
:10026000B1609023134AD15007231D043768AF4370
:10027000376001252F0432683A4332600D4F7964AC
:1002800022687026B2432260226810261643266038
:100290003962016899430160016829430160802047
:1002A00039460B500B60F0BDC001005008000052F1
:1002B000080080534000005080B51048C2691049C2
:1002C00003231A4202D00A460832C26101620021A9
:1002D00001604160C9438160FFF7ACFF09480068D5
:1002E0001949087000F012F88D20C00548210160FE
:1002F000054941600121416180BDC04604000050B4
:100300000000695AFC0D0000881300000C4803210E
:100310000161D3214900016007200006A721C9051A
:100320000A6882430A60086808600648092141603B
:1003300005490978442901D1082101607047C04668
:1003400008000045B40000506500002080B5024858
:100350000068804780BDC04658100000F0B589B0E5
:1003600001900020944A014604E013788340591814
:10037000521C08301828F8D1481C2E4B5A1C9942A0
:1003800000D310460221C9438B4A06E053180124CA
:1003900064021855D870491C000A0029F6D145207E
:1003A00000F00AFC012008AD284300F0FDFA2846C1
:1003B00000F0FAFA00210F460E462BE003910F2CB5
:1003C00002D8029704AF07E030461B4908400009F5
:1003D0001E2808D80297019F3D19284600F0E4FA2C
:1003E000385D029F08E004A804191448251828461F
:1003F00000F0DAFA1148205C00F0DEFBF8B2039955
:10040000C9B20902014328780F18FF2000023840C2
:10041000010A761CB4B208A800888442CED3C8B2C0
:10042000ED4CA047F8B2A0470320A04700F09AF88F
:1004300009B0F0BDFEFFFF00F0FF000010FEFFFF5F
:10044000B0B504464620E44DA8470220A847002046
:10045000A8470120450204E0207800F0ADFB641CB1
:100460006D1E002DF8D1032000F0A6FBB0BDC046E4
:1004700080B502480068804780BDC0466810000013
:1004800072B69321C9058F4A0A610B682022134274
:10049000FBD148600320C86008681042FCD10020EE
:1004A000C04308617047C046FEB507208006294D4D
:1004B0000290A847064628480640284C201D019077
:1004C000A84707462046A847050A10242020AE4228
:1004D00000D004462048074021481E498847010AA9
:1004E000012002228F4200D01046AE420BD18F4233
:1004F00009D103200421BE4200D308464024302104
:10050000BE4200D30C4604432A4804707F2020409A
:10051000002811D0012813D002280DD0102813D0A4
:10052000122811D0202807D0212809D0432807D02D
:10053000342809D022280CD11F48FF210170FEBDAC
:1005400080211D4A019802E080211B4A029800F098
:1005500037F8FEBD19060000FFFF0F00FC01001C6C
:10056000FC03001CB0B51348007803280DD30146E6
:100570002039022909D310280AD0122808D02228AD
:100580000CD0342804D0432807D10720800600E08F
:100590000A488021084A00F055F8B0BD07208006BF
:1005A0008024054D21462A4600F04CF80348214698
:1005B0002A46F0E764000020660000200002001CCC
:1005C000F8B5009072B69323DB053E4C1C61002009
:1005D0001AE01F6820263742FBD1AD00009C2F197E
:1005E0005F600127DF601C683442FCD19C68545571
:1005F0002F43260AD65502262E43270C975503264D
:100600002E43240E9455401CC5B28D42E1D30020E8
:10061000C043186162B6F8BD72B69321C905294A74
:100620000A610B6820221342FBD148600120C86098
:1006300008681042FCD188680022D2430A6162B681
:100640007047C046FFB50391029072B69323DB0555
:100650001C4919611D6820242542FBD1029858606D
:1006600003200190D8601E682642FCD10027F84381
:100670000090186119611DE01D682542FCD1B00091
:10068000029945185D60155C01210143515C090226
:100690002943022506462E43965D36040E430199F2
:1006A0000843105C000630439860DD601868204203
:1006B000FCD17F1CFEB203988642DDD300981861FE
:1006C00062B6FFBD9966AA5580B5412080010068D9
:1006D000804780BD80B502480068804780BDC04625
:1006E0004410000080B502480068804780BDC046C5
:1006F0004810000080B502480068804780BDC046B1
:100700004C10000080B502480068804780BDC0469C
:100710005010000080B502480068804780BDC04688
:100720000C10000080B5852040010068804780BD26
:10073000F0B5FFB084B00168C90B46D1009001202C
:1007400082AD284300F030F9284600F02DF900274B
:100750003D46394610E002AE3019019100F024F90F
:10076000E8B2F9B209020143305D0D180199FF208A
:1007700000022840070A491C82A800888CB28442E3
:10078000E9D30121009C13E0206882A9098800298F
:1007900004D0802102AAFFF755FF03E0FFF770FEA7
:1007A0000025FF270021204600F028F8E9B241404B
:1007B0000806E9D14D20574CA0470020A047022051
:1007C000A047F8B2A047E8B2A0470D204001F64983
:1007D00008607FB004B0F0BDB90B000080B50248DE
:1007E0000068804780BDC0460810000080B5024800
:1007F0000068804780BDC04638100000F0B5FFB0EB
:1008000084B00C460546002C06D002AE304600F0FF
:10081000CBF8304600F0C8F80D20460128680027C4
:10082000C10B20D1002C09D04E203746394EB0479D
:100830000220B0470020B0473E462868802103AD23
:100840002A46FFF7BDFE01966036002708E0B9B2E0
:1008500028784718002C01D000F0AEF96D1C761EE8
:10086000002EF4D1019E002C01D0CF480660B8B212
:100870007FB004B0F0BDC04670B594B04E20254D99
:10088000A84700242046A8475920A847224E03E045
:10089000305D00F091F9641C082CF9D10720440266
:1008A0000F2105AA2046FFF78BFE00260BE005A8C6
:1008B000805DFF2801D0002802D105A9202088559D
:1008C00000F07AF9761C3C2EF1D1E46BE0B2A84737
:1008D000200AC0B2A84711480468E0B2A847200A1D
:1008E000C0B2A8470320C006042101AAFFF768FE92
:1008F000002404E001A8005D00F05EF9641C102CE7
:10090000F8D10748007800F057F9032000F054F9B7
:1009100014B070BDB90B0000F00D0000FC7F0000AA
:10092000F80D000080B502480068804780BDC046D1
:100930002C10000010B50446442000F03DF90020C2
:100940006080601C00F030F8204600F02DF8032095
:1009500000F032F910BD000080B502480068804701
:1009600080BDC0463C1000007047000080B50248C2
:100970000068804780BDC0467C10000080B5212003
:10098000C0010068804780BD80B50248006880478C
:1009900080BDC0469C10000080B5024800688047BA
:1009A00080BDC0466410000010B58F490978442905
:1009B00002D08E4909220A608D490A4A146801232F
:1009C0001C420DD10B6880242342F7D10C6801230F
:1009D0001C42F3D00A681A42FCD01F22D2438B5823
:1009E000037010BD0C008046F0B585B0FFF764FCC5
:1009F0006A48017801263143017004A8002505707A
:100A00006748017802220A4302700520FFF7FCFBC9
:100A10008D20C10508688022009210430191086072
:100A200060490878102202921043087060480396CB
:100A300032462E462F4694E00446E8B2012802D101
:100A4000FFF732FD022504A8FFF7AEFF30062ED0D7
:100A500054480278114602980143EF200240FF23D8
:100A60001F4200D011464F4A1170791CCAB20027AC
:100A7000092A00D80F4604A9097842291AD1422030
:100A800000F09AF8474801460878029A1043087027
:100A900001990868009A90430860FF2001260542EA
:100AA000314600D02946039A0D46204659E004A855
:100AB000017804E03B4A13461A7802401A70204637
:100AC0000A46423A0C2A23D8920002A15158039AAE
:100AD0008F46C046090B0000630B00000B0B0000A3
:100AE0002D0B0000350B0000630B0000630B0000B2
:100AF000630B0000630B0000630B0000630B00003E
:100B00003D0B0000430B0000B9E7FFF713FF26E0A1
:100B1000012920D02A29039A23D12A2000F04CF859
:100B200020468A2220490A60039A1AE02148FFF7EA
:100B300015FC14E01F48FFF783FC10E0FFF7F8FDF9
:100B40000DE0427801781140C9B2FF2905D001219A
:100B5000FFF754FE03E0002203E0FFF78DFE20467E
:100B6000039AD10700D067E70E4802461078EF21BC
:100B7000014011700D480021416001600A48016088
:100B80004160C16001610198016041600120000382
:100B9000016881F3088840688047FEE708008052BA
:100BA000080000530800005408000045B40000503D
:100BB00060000020660000200B490978442902D01B
:100BC0000A4908220A600A490B6820221342FBD016
:100BD0001B23DB43C85008681042FCD00868402241
:100BE0001042FBD07047C04665000020B80000509E
:100BF00020000045040C000000000020680A0000EE
:040C000004010000EB
:020000040000FA
:080DF0004E4132313539323930
:020000040000FA
:040DF80004000000F3
:020000040000FA
:040DFC0053000000A0
:04000005000000C136
:00000001FF
