:020000040000FA
:10000000800A0020650100006D0100006F01000002
:1000100000000000000000000000000000000000E0
:10002000000000000000000000000000710100005E
:1000300000000000000000007301000075010000D6
:1000400077010000770100007701000077010000D0
:1000500077010000770100007701000077010000C0
:1000600077010000770100007701000077010000B0
:1000700077010000770100007701000077010000A0
:100080007701000077010000770100007701000090
:100090007701000077010000770100007701000080
:1000A0007701000077010000770100007701000070
:1000B0007701000077010000770100007701000060
:1000C00000F002F800F03EF80CA030C80838241800
:1000D0002D18671EA246AB4654465D46AC4201D180
:1000E00000F030F87E460F3EB6460FCC0126334274
:1000F00000D0FB1A3343A246AB461847FC0C000065
:100100001C0D0000103A02D378C878C1FAD8520703
:1001100001D330C830C101D504680C6070470000BD
:100120000023002400250026103A01D378C1FBD813
:10013000520700D330C100D50B6070471FB51FBDFB
:1001400010B510BD00F0D8F81146FFF7F7FF00F02A
:100150004BFD00F0F0F803B4FFF7F2FF03BC00F032
:10016000F7F800000748804707480047FEE7FEE72A
:10017000FEE7FEE7FEE7FEE704480549034A054BB4
:1001800070470000190B0000C10000008002002031
:10019000800A002080020020002203098B422CD319
:1001A000030A8B4211D300239C464EE003460B43C7
:1001B0003CD4002243088B4231D303098B421CD329
:1001C000030A8B4201D394463FE0C3098B4201D31B
:1001D000CB01C01A524183098B4201D38B01C01A53
:1001E000524143098B4201D34B01C01A52410309CA
:1001F0008B4201D30B01C01A5241C3088B4201D379
:10020000CB00C01A524183088B4201D38B00C01A25
:10021000524143088B4201D34B00C01A5241411A4C
:1002200000D201465241104670475DE0CA0F00D02F
:100230004942031000D3404253409C460022030928
:100240008B422DD3030A8B4212D38901FC2212BAAE
:10025000030A8B420CD3890192118B4208D3890186
:1002600092118B4204D389013AD0921100E089099E
:10027000C3098B4201D3CB01C01A524183098B427F
:1002800001D38B01C01A524143098B4201D34B0168
:10029000C01A524103098B4201D30B01C01A5241CB
:1002A000C3088B4201D3CB00C01A524183088B4252
:1002B00001D38B00C01A5241D9D243088B4201D3DB
:1002C0004B00C01A5241411A00D201465241104619
:1002D00063465B1001D34042002B00D54942704772
:1002E00063465B1000D3404201B50020C046C046C3
:1002F00002BD704770477047754600F025F8AE465E
:10030000050069465346C008C000854618B020B5B0
:10031000FFF732FF60BCB64600260027C0C5C0C547
:10032000C0C5C0C5C0C5C0C5C0C5C0C5403D4908E1
:1003300049008D46704710B50446C046C046204669
:10034000FFF709FF10BD00000048704718000020AB
:1003500001491820ABBEFEE72600020070470000EE
:1003600009490DE07D22D30006E0082300E000BF2C
:100370005B1E0B42FBD113465A1E0B42F5D1401EA9
:100380000204EFD17047C046FFFF0000F0B52248DD
:100390009921C163016041608160C16001611F48B2
:1003A00000220260A520C005826053210C06A260D5
:1003B0001B490A6015218E06B26090231949CA5064
:1003C00007231D043768AF43376001252F043168C8
:1003D00039433160317A10273943317211494A6407
:1003E00021687026B1432160216839432160217A58
:1003F00002260E4326720B4C22620168994301606B
:10040000016829430160017A294301728020214655
:100410000B500B60F0BDC046C001005008000052F8
:10042000080080534000005010B50024204600F022
:1004300005FB00F013FB2046214600F0E5FA2046BC
:1004400000F0F4FAFFF7A2FF00F028F800F002F83D
:1004500010BD000010B5022000F00EFB8D20C40579
:1004600001210822204600F05BFB402100222046AB
:1004700000F062FB204600F069FB0749204600F0CF
:1004800073FB204600F067FB204600F046FB204649
:1004900000F071FB10BDC04688130000E0B50023DA
:1004A00068460360452000060949032200F068FB06
:1004B000102000F0E1FA07200006A721C9050A680C
:1004C00082430A600868086002480921016086BD0D
:1004D000FB240000B8000050F0B589B00190002066
:1004E000904A014604E0137883405918521C0830A2
:1004F0001828F8D1481C2E4B5A1C994200D310469C
:100500000221C943874A06E05318012464021855A2
:10051000D870491C000A0029F6D1452000F04EFC95
:10052000012008AD284300F041FB284600F03EFBC7
:1005300000210F460E462BE003910F2C02D80297A4
:1005400004AF07E030461B49084000091E2808D8C0
:100550000297019F3D19284600F028FB385D029F55
:1005600008E004A8041914482518284600F01EFBCA
:100570001148205C00F022FCF8B20399C9B20902CC
:10058000014328780F18FF2000023840010A761C2A
:10059000B4B208A800888442CED3C8B2EE4CA047BB
:1005A000F8B2A0470320A04700F092F809B0F0BDD0
:1005B000FEFFFF00F0FF000010FEFFFFB0B5044695
:1005C0004620E54DA8470220A8470020A847012063
:1005D000450204E0207800F0F1FB641C6D1E002D44
:1005E000F8D1032000F0EAFBB0BDC04672B69321FB
:1005F000C9058F4A0A610B6820221342FBD148606B
:100600000320C86008681042FCD10020C043086184
:100610007047C046FEB507208006294D0290A847C6
:10062000064628480640284C201D0190A84707464A
:100630002046A847050A10242020AE4200D00446D8
:100640002048074021481E498847010A012002220C
:100650008F4200D01046AE420BD18F4209D1032009
:100660000421BE4200D3084640243021BE4200D3BC
:100670000C4604432A4804707F202040002811D0F3
:10068000012813D002280DD0102813D0122811D021
:10069000202807D0212809D0432807D0342809D0A2
:1006A00022280CD11F48FF210170FEBD80211D4A68
:1006B000019802E080211B4A029800F037F8FEBD45
:1006C00085070000FFFF0F00FC01001CFC03001C5D
:1006D000B0B51348007803280DD30146203902290C
:1006E00009D310280AD0122808D022280CD0342888
:1006F00004D0432807D10720800600E00A48802163
:10070000084A00F055F8B0BD072080068024054D4A
:1007100021462A4600F04CF8034821462A46F0E7D5
:100720007C0000207D0000200002001CF8B5009035
:1007300072B69323DB053E4C1C6100201AE01F6853
:1007400020263742FBD1AD00009C2F195F600127A6
:10075000DF601C683442FCD19C6854552F43260A44
:10076000D65502262E43270C975503262E43240EDA
:100770009455401CC5B28D42E1D30020C04318619E
:1007800062B6F8BD72B69321C905294A0A610B68A1
:1007900020221342FBD148600120C8600868104243
:1007A000FCD188680022D2430A6162B67047C04615
:1007B000FFB50391029072B69323DB051C491961C2
:1007C0001D6820242542FBD1029858600320019027
:1007D000D8601E682642FCD10027F84300901861BB
:1007E00019611DE01D682542FCD1B0000299451831
:1007F0005D60155C01210143515C0902294302251A
:1008000006462E43965D36040E4301990843105C5C
:10081000000630439860DD6018682042FCD17F1CE0
:10082000FEB203988642DDD30098186162B6FFBD20
:100830009966AA55F0B5FFB084B00168C90B46D1DE
:100840000090012082AD284300F0B0F9284600F066
:10085000ADF900273D46394610E002AE301901914E
:1008600000F0A4F9E8B2F9B209020143305D0D18B5
:100870000199FF2000022840070A491C82A800882D
:100880008CB28442E9D30121009C13E0206882A944
:100890000988002904D0802102AAFFF789FF03E01C
:1008A000FFF7A4FE0025FF270021204600F018F8DE
:1008B000E9B241400806E9D14D204F4CA047002045
:1008C000A0470220A047F8B2A047E8B2A0474520C1
:1008D00000064B21C90100F0E9F87FB004B0F0BD7B
:1008E000F0B5FFB082B00C460546002C06D06E462F
:1008F000304600F05BF9304600F058F928680026D1
:10090000C10B1DD1002C07D04E203B4EB04702201A
:10091000B0470020B0472868802101AD2A46FFF784
:1009200005FF01204702002608E0B1B228784618EA
:10093000002C01D000F042FA6D1C7F1E002FF4D174
:10094000002C05D0452000064B21C90100F0AEF86F
:10095000B0B27FB002B0F0BDBD0D000070B594B074
:100960004E20254DA84700242046A8475920A847D7
:10097000224E03E0305D00F021FA641C082CF9D10E
:10098000372044020F2105AA2046FFF7CFFE00269C
:100990000BE005A8805DFF2801D0002802D105A941
:1009A0002020885500F00AFA761C3C2EF1D1E46B29
:1009B000E0B2A847200AC0B2A84711480468E0B2D4
:1009C000A847200AC0B2A8470320C006042101AAF4
:1009D000FFF7ACFE002404E001A8005D00F0EEF992
:1009E000641C102CF8D10748007800F0E7F90320C8
:1009F00000F0E4F914B070BDBD0D0000EC0D000076
:100A0000FC6F0000F40D0000B0B5074B3F4A546A7C
:100A100001252C4201D15B1CF9D10F4B1843106208
:100A2000116000F04DF8B0BDEFD8FFFF80B502496E
:100A3000086000F045F880BD080000500B490A68C6
:100A4000044B1A40DB1C034013430348184308605F
:100A50007047C046FCFF00000000695A0348016867
:100A6000034A0A40034911430160704720000050C7
:100A7000F7FF00000800695A02490A6802430A6049
:100A80007047C0460C00005010B50446442000F0EA
:100A900095F900206080601C00F088F8204600F086
:100AA00085F8032000F08AF910BD000010B5044657
:100AB0003D4800680009FFF76FFBA06010BDC0460D
:100AC000F8B5124EF069032108408000104D281837
:100AD0008468306A084201D0306A0E4CFF2047001B
:100AE0003068410039400029204602D02046FFF7F7
:100AF00053FB2860706841003940002903D020462C
:100B0000FFF74AFB04466C60F8BDC0460400005085
:100B100000000020409C00007047012141617047A7
:100B2000044B196001680C2399430160016811436B
:100B3000016070472C00005010B503684224A343A5
:100B40000360114302680A43026010BD016801227C
:100B50009143016070470168202291430160704712
:100B6000C1680120084070474160704701688022D9
:100B70000A43026070470168802291430160704718
:100B8000B0B50446A0693F25A843A0611A43049864
:100B90001043A2690243A261034800680009FFF7FD
:100BA000FBFAA060B0BDC04604000020B0B504460A
:100BB0008C48092101608C4D8D20C005FFF7D0FFC6
:100BC000012100280DD1286880210842F4D129682C
:100BD00001200142F0D029680142FCD01F20C0430F
:100BE00029582170B0BDC046F0B585B0FFF71CFC98
:100BF0006B48017801263143017004A80025057077
:100C00006848017802220A4302700520FFF7A8FB1A
:100C10008D20C0050190FFF7A9FF634A10781021CD
:100C20000291084310704520000600906148039629
:100C300032462F462E4692E00446E8B2012802D101
:100C4000FFF7E8FC022504A8FFF7B0FF38062CD018
:100C500055480278114602980143EF200240FF23D5
:100C60001E4200D01146504A1170711CCAB20026B3
:100C7000092A00D80E4604A90978422918D1422031
:100C800000F09CF84848024610780299084310701A
:100C90000198FFF770FFFF2001270542394600D079
:100CA0002946039A0D46204659E004A8017804E03D
:100CB0003D4A13461A7802401A7020460A46423AC4
:100CC0000C2A23D8920002A15158039A8F46C0469D
:100CD000050D00005F0D0000070D0000290D00004C
:100CE000310D00005F0D00005F0D00005F0D000082
:100CF0005F0D00005F0D00005F0D0000390D00006A
:100D00003F0D0000BBE7FFF7BFFE26E0012920D022
:100D10002A29039A23D12A2000F050F8E120C101AA
:100D20000098FFF7C3FE18E02348FFF7D5FB14E057
:100D30002148FFF743FC10E0FFF77CFD0DE042780F
:100D400001781140C9B2FF2905D00121FFF7C8FD84
:100D500003E0002203E0FFF701FE2046039AD107DB
:100D600000D069E7104802461078EF210140117069
:100D7000A0210E48002242509C21425000998A60D6
:100D8000CA604A618A6101990A604A609321C90573
:100D9000074B0B61029C0C600A61591C0160FEE765
:100DA000080080520800005308000054180000504A
:100DB0009966AA55780000207D0000200949082284
:100DC0000A6009490B6820221342FBD01B23DB4336
:100DD000C85008681042FCD0086840221042FBD07E
:100DE0007047C046B8000050200000454E413231E7
:100DF0003539323901000000200E000000000020CB
:100E00001800000004010000380E00001800002047
:100E1000680A00002001000000000000000000003F
:100E2000006CDC02006CDC020090D00300000000CB
:080E300000000000006CDC0270
:04000005000000C136
:00000001FF
