:020000040000FA
:100000007808002049010000B104000095040000B8
:1000100000000000000000000000000000000000E0
:10002000000000000000000000000000D1040000FB
:100030000000000000000000C1040000E104000016
:100040004904000055040000650400007504000028
:10005000850400005B0100004D030000F901000071
:100060005B010000210500005D0300005B01000052
:100070005B010000E90100005B010000F5040000E5
:10008000050500005B0100005B0100005B01000052
:100090005B0100005B0100005B0100001105000036
:1000A000A50400005B0100005B0100005B01000093
:1000B0005B0100005B0100005B0100005B010000D0
:1000C00000F002F800F030F80CA030C8083824180E
:1000D0002D18671EA246AB4654465D46AC4201D180
:1000E00000F022F87E460F3EB6460FCC0126334282
:1000F00000D0FB1A3343A246AB461847F004000079
:10010000000500000023002400250026103A01D33A
:1001100078C1FBD8520700D330C100D50B607047BF
:100120001FB51FBD10B510BD00F02BF81146FFF72D
:10013000F7FF00F0FDF900F043F803B4FFF7F2FF1A
:1001400003BC00F049F80000074880470748004713
:10015000FEE7FEE7FEE7FEE7FEE7FEE704480549A7
:10016000034A054B70470000F1040000C100000085
:100170007800002078080020780000207047704741
:100180007047754600F024F8AE46050069465346B0
:10019000C008C000854618B020B5FFF7DFFF60BC7F
:1001A000B64600260027C0C5C0C5C0C5C0C5C0C56D
:1001B000C0C5C0C5C0C5403D490849008D4670470F
:1001C00010B50446C046C0462046FFF7B6FF10BD36
:1001D000004870470000002001491820ABBEFEE730
:1001E000260002007047000080B502480068804782
:1001F00080BDC0467410000080B50248006880478A
:1002000080BDC0465C10000009490DE07D22D3008E
:1002100006E0082300E000BF5B1E0B42FBD1134643
:100220005A1E0B42F5D1401E0204EFD17047C04662
:10023000FFFF0000F0B51C489921C16301604160D7
:100240008160C1600161194800210160A520C005DD
:10025000816053221406A160154A1160152296068A
:10026000B1609023134AD15007231D043768AF4370
:10027000376001252F0432683A4332600D4F7964AC
:1002800022687026B2432260226810261643266038
:100290003962016899430160016829430160802047
:1002A00039460B500B60F0BDC001005008000052F1
:1002B000080080534000005080B51048C2691049C2
:1002C00003231A4202D00A460832C26101620021A9
:1002D00001604160C9438160FFF7ACFF09480068D5
:1002E0001949087000F012F88D20C00548210160FE
:1002F000054941600121416180BDC04604000050B4
:100300000000695AFC0D0000881300000C4803210E
:100310000161D3214900016007200006A721C9051A
:100320000A6882430A60086808600648092141603B
:1003300005490978442901D1082101607047C04668
:1003400008000045B40000507000002080B502484D
:100350000068804780BDC0465810000080B5024844
:100360000068804780BDC04668100000F8B5009066
:1003700072B69323DB05334C1C6100201AE01F6822
:1003800020263742FBD1AD00009C2F195F6001276A
:10039000DF601C683442FCD19C6854552F43260A08
:1003A000D65502262E43270C975503262E43240E9E
:1003B0009455401CC5B28D42E1D30020C043186162
:1003C00062B6F8BDFFB50391029072B69323DB05C8
:1003D0001C4919611D6820242542FBD102985860F0
:1003E00003200190D8601E682642FCD10027F84304
:1003F0000090186119611DE01D682542FCD1B00014
:10040000029945185D60155C01210143515C0902A8
:100410002943022506462E43965D36040E43019974
:100420000843105C000630439860DD601868204285
:10043000FCD17F1CFEB203988642DDD30098186180
:1004400062B6FFBD9966AA5580B54120800100685B
:10045000804780BD80B502480068804780BDC046A7
:100460004410000080B502480068804780BDC04647
:100470004810000080B502480068804780BDC04633
:100480004C10000080B502480068804780BDC0461F
:100490005010000080B502480068804780BDC0460B
:1004A0000C10000080B5852040010068804780BDA9
:1004B00080B502480068804780BDC0460810000033
:1004C00080B502480068804780BDC04638100000F3
:1004D00080B502480068804780BDC0462C100000EF
:1004E00080B502480068804780BDC0463C100000CF
:1004F0007047000080B502480068804780BDC04654
:100500007C10000080B52120C0010068804780BDBC
:1005100080B502480068804780BDC0469C1000003E
:1005200080B502480068804780BDC0466410000066
:10053000F0B5FFB0FFB085B0FFF7BEFE26480178EA
:100540000124214301702548017802220A430270E8
:100550000520FFF759FE8D20C005016880220A435F
:1005600002601F48017810220A4302701D4F1E4886
:10057000072149027960B86066022003019078780B
:10058000029683A9324602E00870491C521E002AD6
:10059000FAD1802683AA019C20463146FFF712FF3C
:1005A00003AD20463146029E2A46FFF7DFFE7878EB
:1005B000324606E02B78984200D0FC60641C6D1C2B
:1005C000521E002AF6D100213970401C78707968DB
:1005D000091D7960D5E7C046080080520800005325
:1005E0000800005460000020FF7F0000FC050000B0
:0C05F0000000002078080000040100005A
:020000040000FA
:080DF0004E4132313539323930
:020000040000FA
:040DF80004000000F3
:020000040000FA
:040DFC0053000000A0
:04000005000000C136
:00000001FF
